:020000040800F2
:10000000C023002051370008CB010008CD010008B3
:10001000D1010008D5010008D90100080000000046
:10002000000000000000000000000000DD010008EA
:10003000DF01000800000000E1010008E301000802
:100040006B3700086B3700086B3700086B37000808
:100050006B3700086B3700086B3700086B370008F8
:100060006B3700086B3700086B3700086B370008E8
:100070006B3700086B3700086B3700086B370008D8
:100080006B3700086B3700086B3700086B370008C8
:100090006B3700086B3700086B3700086B370008B8
:1000A0006B3700086B3700086B3700086B370008A8
:1000B000C30F00086B3700086B3700086B37000868
:1000C0006B3700086B3700086B3700086B37000888
:1000D0006B370008D91100086B3700086B37000830
:1000E0006B3700086B3700086B3700086B37000868
:1000F0006B3700086B3700086B3700086B37000858
:100100006B3700086B3700086B3700086B37000847
:100110006B3700086B3700086B3700086B37000837
:100120006B3700086B3700086B3700086B37000827
:1001300000F002F800F03AF80AA090E8000C8244BF
:100140008344AAF10107DA4501D100F02FF8AFF29C
:10015000090EBAE80F0013F0010F18BFFB1A43F0A5
:10016000010318476852000088520000103A24BF6B
:1001700078C878C1FAD8520724BF30C830C144BF0C
:1001800004680C607047000000230024002500264E
:10019000103A28BF78C1FBD8520728BF30C148BFEA
:1001A0000B6070471FB51FBD10B510BD05F0C8F836
:1001B0001146FFF7F7FF00F0A0FE05F0FAF803B4D0
:1001C000FFF7F2FF03BC00F0A7FF704700BFFEE798
:1001D00000BFFEE700BFFEE700BFFEE770477047C5
:1001E0007047704708B52020ADF8000001208DF859
:1001F000020010208DF803006946FA4801F0E0FB88
:100200002021F84801F08BFC08BD00B587B0012122
:1002100041F2050001F0B0FEE020ADF81800032027
:100220008DF81A0018208DF81B0006A9EE4801F081
:10023000C7FBE021EC4801F070FC1020ADF818007D
:1002400003208DF81A0010208DF81B0006A9E6483F
:1002500001F0B6FB1021E44801F05FFC0020ADF88E
:1002600004004FF48270ADF806000020ADF80800DD
:10027000ADF80A00ADF80C004FF40070ADF80E00B8
:100280000020ADF81000ADF812000720ADF8140002
:1002900001A9D64801F0FAFE0121D44801F09BFFE4
:1002A00007B000BD10B504462146D04801F0C4FF98
:1002B00000BF0221CD4802F012F80028F9D010BD8D
:1002C00070B504462546E11704EB1161C1F3072020
:1002D000FFF7E8FFE0B2FFF7E5FF70BD70B5054638
:1002E0000C461021C04801F01AFC2846FFF7E8FF31
:1002F0000520FFF7D7FF2046FFF7D4FF1021BA48AB
:1003000001F00BFC70BD70B505460C461021B648D7
:1003100001F005FC2846FFF7D3FF0620FFF7C2FFD8
:100320002046FFF7CDFF1021AF4801F0F6FB70BD6E
:100330002DE9F04107460C4615461021AA4801F068
:10034000EEFB3846FFF7BCFF0420FFF7ABFF0026AB
:1003500005E014F8010BFFF7A5FF701C86B2AE4252
:10036000F7DB1021A04801F0D8FBBDE8F08170B5A3
:1003700004460D46164610219B4801F0D0FB284646
:10038000FFF79EFF082101EB4411C9B241F00500BF
:10039000FFF788FF3046FFF785FF1021924801F0F4
:1003A000BCFB70BD70B504460D46164610218E4844
:1003B00001F0B5FB2846FFF783FF082101EB44114C
:1003C000C9B241F00600FFF76DFF3046FFF778FF36
:1003D0001021854801F0A1FB70BD70B505460E46A1
:1003E00014461021804801F09AFB3046FFF768FF61
:1003F000082101EB4511C9B241F00700FFF752FF98
:1004000014F8010BFFF74EFF14F8010BFFF74AFF3A
:1004100014F8010BFFF746FF14F8010BFFF742FF3A
:100420001021714801F079FB70BD70B504461021B0
:100430006D4801F074FB2046FFF742FF0120FFF7F3
:1004400031FF6A4801F0FAFEC5B20020FFF72AFF2B
:10045000664801F0F3FEC5B21021634801F05DFB70
:10046000284670BD70B504460D4610215E4801F067
:1004700056FB2846FFF724FF082101EB4411C9B2BF
:1004800041F00100FFF70EFF584801F0D7FEC6B259
:100490000020FFF707FF554801F0D0FEC6B210213B
:1004A000514801F03AFB304670BD70B505460E4626
:1004B00010214D4801F033FB3046FFF701FF0821C2
:1004C00001EB4511C9B241F00200FFF7EBFE4748CE
:1004D00001F0B4FE04460020FFF7E4FE434801F0BB
:1004E000ADFE04460020FFF7DDFE4FF6FF7000EA88
:1004F00004243E4801F0A2FE204484B210213A4870
:1005000001F00BFB204670BD2DE9F04780460D46FB
:1005100026214046FFF7C9FF064616B90020BDE870
:10052000F08740F2B450864200DD0646282140465E
:10053000FFF7BBFF0746B946C7F30A0710212A4851
:1005400001F0EDFA3846FFF7BBFE182101EB481128
:10055000C8B2FFF7A7FE254801F070FE00F0FF0AC1
:10056000B819B0F5006F11DA00240CE00020FFF795
:1005700099FE1E4801F062FE00F0FF0A85F800A017
:100580006D1C601C84B2B442F0DB40E0C7F5006033
:1005900087B200240CE00020FFF784FE134801F02E
:1005A0004DFE00F0FF0A85F800A06D1C601C84B2AF
:1005B000BC42F0DB10210C4801F0AFFA10210A48D0
:1005C00001F0ADFA0020FFF77BFE182101EB481186
:1005D000C8B2FFF767FE054801F030FE00F0FF0AE1
:1005E00013E000000010014000080140003001400D
:1005F0000020FFF757FEF74801F020FE00F0FF0A49
:1006000085F800A06D1C601C84B2B442F0DB1021A0
:10061000F14801F082FA09EB06001FFA80F94A4618
:1006200028214046FFF7BEFE402201214046FFF749
:100630009EFE304673E72DE9F04707460D4690468B
:1006400000213846FFF70EFF00F00F0022280ED0E1
:10065000E24A0C213846FFF7C0FEE14841780078B5
:1006600001EB002082B210213846FFF79BFE2421C7
:100670003846FFF71AFF0646B146C6F30A061021B0
:10068000D54801F04CFA3046FFF71AFE102101EB75
:100690004711C9B241F00400FFF704FE06EB080061
:1006A000B0F5006F0ADA002405E015F8010BFFF73A
:1006B000F9FD601C84B24445F7DB28E0C6F5006014
:1006C00086B2002405E015F8010BFFF7EBFD601C76
:1006D00084B2B442F7DB1021BF4801F01EFA1021AA
:1006E000BD4801F01CFA0020FFF7EAFD102101EBE4
:1006F0004711C9B241F00400FFF7D4FD05E015F839
:10070000010BFFF7CFFD601C84B24445F7DB1021DD
:10071000B14801F002FA09EB08001FFA80F94A46D5
:1007200024213846FFF73EFE202201213846FFF7FC
:100730001EFEBDE8F08710B52021AA4801F0EFF9B0
:10074000322000F059FC2021A64801F0E6F9C8202B
:1007500000F052FC10BD10B5002480210020FFF7EE
:10076000BDFD0A2000F048FC04229F490120FFF74C
:10077000DFFD04229D490520FFF7DAFD06229C4992
:100780000920FFF7D5FD04229A490F20FFF7D0FD7D
:1007900000BF0BE002221E212046FFF7E8FD0222E7
:1007A0001F212046FFF7E3FD601CC4B2082CF1DBDB
:1007B0004FF4FA611920FFF7A6FD08211B20FFF76F
:1007C0008DFD10BD38B58B480078401CC0B28DF847
:1007D000000088484078401CC0B28DF80100854870
:1007E0008078401CC0B28DF802008248C078401C5E
:1007F000C0B28DF803006A460C210020FFF7EDFD22
:10080000012200210846FFF7B2FD01221146002017
:10081000FFF7ADFD052000F0EFFB03210020FFF7FF
:1008200021FE132806D0102201210020FFF79FFD92
:10083000002038BD042201210020FFF798FD00BFF1
:10084000002402210020FFF70DFE044624B12246B9
:1008500002210020FFF78BFD052000F0CDFB04F006
:100860000800082801D10020E3E706210020FFF757
:10087000F9FDFF2806D0102201210020FFF777FDA7
:10088000FF20D6E7DCE710B5044640F2B45212214F
:100890000020FFF787FD082C26D2DFE804F0041EB5
:1008A0001F202122232454484178007801EB0020A6
:1008B00082B204210020FFF775FD5048417800788E
:1008C00001EB002082B210210020FFF76BFD4C4AA3
:1008D0000C210020FFF781FD07E006E005E004E0C1
:1008E00003E002E001E000E000BF00BF10BD10B572
:1008F0000446012200212046FFF739FD012211465E
:100900002046FFF734FD052000F076FB032120464A
:10091000FFF7A8FD132806D0102201212046FFF77B
:1009200026FD002010BD042201212046FFF71FFDF7
:10093000FF20F7E710B50446012200212046FFF70B
:1009400016FD012211462046FFF711FD052000F09B
:1009500053FB03212046FFF785FD132806D0102204
:1009600001212046FFF703FD002010BD02220121D6
:100970002046FFF7FCFC052000F03EFB032120464B
:10098000FFF770FD142806D0102201212046FFF742
:10099000EEFC0020E9E7FF20E7E710B5044602225D
:1009A00000212046FFF7E3FC012211462046FFF715
:1009B000DEFC052000F020FB03212046FFF752FD5E
:1009C00022281FD0102201212046FFF7D0FC002052
:1009D00010BD000000300140000801401A00002056
:1009E0001E00002000100140000000200400002034
:1009F000080000200E000020120000201800002037
:100A000014000020FF2010BD70B500BF1720FFF7B5
:100A10000CFD054605F0010000283DD00221002014
:100A2000FFF720FD0446224602210020FFF79FFC2D
:100A300004F0010028B11C48007840F002001A4977
:100A4000087004F0020050B1102201210020FFF7CD
:100A50008EFC0020FFF717FF00201349087004F0F8
:100A6000100028B11148007840F002000F490870CA
:100A700004F0040028B10D48007840F001000B4953
:100A8000087004F0080038B1102201210020FFF79F
:100A90006EFC0020044908701720FFF7C6FC00F028
:100AA000010000B1B2E770BD21000020220000204B
:100AB00008B5012140F2FD1001F05EFA4FF480709C
:100AC000ADF8000010208DF8030003208DF802001F
:100AD0006946594800F074FF0F20ADF80000482027
:100AE0008DF8030003208DF802006946524800F09B
:100AF00067FF40F29F30ADF8000048208DF80300FA
:100B000003208DF8020069464C4800F059FF4FF46D
:100B10007050ADF8000010208DF8030003208DF810
:100B200002006946454800F04BFF4FF4DE50ADF837
:100B3000000010208DF8030003208DF802006946A4
:100B40003F4800F03DFF4EF20100ADF800004820A4
:100B50008DF8030003208DF802006946384800F044
:100B60002FFF4FF6FF40ADF8000010208DF8030076
:100B700003208DF802006946324800F021FF7F20F3
:100B8000ADF8000048208DF8030003208DF8020026
:100B900069462D4800F014FF4FF47C40ADF800008A
:100BA00010208DF8030003208DF8020069462648C6
:100BB00000F006FF4FF6FF70ADF8000048208DF8FA
:100BC000030003208DF802006946204800F0F8FE7B
:100BD00047F6CC70ADF8000010208DF8030003201C
:100BE0008DF8020069461A4800F0EAFE4FF4004012
:100BF000ADF8000048208DF8030003208DF80200B6
:100C00006946134800F0DCFE08BD70B505460C4689
:100C100045F2555001F022F8284601F022F820460E
:100C200001F022F801F023F801F026F870BD10B5AC
:100C300001F01DF810BD000000080140000C01404B
:100C4000001001400014014000180140001C014048
:100C50000020014010B5FFF77EFDFFF7B3FD002037
:100C6000FFF711FE10BDC020E8490870A8204870A9
:100C700001208870C870FF20E549087048708870AE
:100C80000020C8700C20E349087029204870AB2070
:100C900088707C20C8700020087101204871C02035
:100CA000DD490870A820487001208870C720C870EE
:100CB0001320DA49087088204870C020D84908708D
:100CC000A820487001208870BE20C8701720D54920
:100CD0000870702048700120D3490870704710B523
:100CE000D2480078F8B9D048007860B90020FFF702
:100CF00021FEFF2803D10120CC49087020E000200C
:100D0000CA4908701CE0C848007801280CD10020AE
:100D1000FFF7EDFDFF2803D10120C44908700FE063
:100D20000020C24908700BE00020FFF736FEFF28C4
:100D300003D10320BD49087002E00020BB490870C0
:100D400010BD70B50446BA492046FFF7DDFB0546E5
:100D50002A46B749B74804F049FA2A46B549204619
:100D6000FFF769FC70BD10B5B348008800F400407F
:100D700000283ED0B1A004F02DFA00240DE0B248C6
:100D8000015DB24802F02CFB00BF4021AF4802F0E9
:100D900095FB0128F9D1601C84B2032CEFDBAA4833
:100DA000007852280DD1A8484078532809D1A64888
:100DB0008078542805D10120A5498874A5A004F0A5
:100DC00009FAA14800784E280DD19F4840784D2857
:100DD00009D19D488078492805D10120A24988740D
:100DE000A2A004F0F7F9A6A004F0F4F900209249BB
:100DF000088010BD70470EB50121084601F0C9F802
:100E00000920ADF8040041F61F40ADF800000020B5
:100E1000ADF80600ADF8020069464FF0804001F0E1
:100E200069FB01221146900701F0DBFE01218807D2
:100E300001F0BCFE0EBD08B500214FF0006000F0CF
:100E40004AFA4FF4C06000F00FFA1C208DF8000041
:100E500000208DF801008DF8020001208DF80300BC
:100E6000684600F006FA08BD10B500F017FF4FF411
:100E7000803000F033FF00F070FF0446012C2FD1CA
:100E8000102000F073FA022000F05CFA002000F05D
:100E9000AAFF002000F0B9FFA00200F0ADFF4FF460
:100EA000E011200400F082FF012000F08BFF00BF62
:100EB000392000F036FF0028FAD0022000F085FF2C
:100EC00000BF00F08BFF0828FBD1012001F08CF857
:100ED0000121084601F05DF801213D2001F04CF8A8
:100EE00010BD10B5FFF7C0FFFFF7A5FFFFF78DF9A5
:100EF000FFF781FFFFF776F910BDFFF7F2FF4FF420
:100F0000165000F017F9FFF7D3FD04F0B3F802F024
:100F1000B9FC40F271210420FFF777FE0120594906
:100F2000887459A004F056F94AE002F03DFC03F041
:100F300046FC594A59495A4802F0F9FE59495A485B
:100F400003F05EFBFFF70FFF58480078012814D12B
:100F50004C4A5749574802F0BDFC4A4A564957483F
:100F600002F0A7FD564A5749574802F036FF574A44
:100F70005749584803F0B6FA18E0514A56495748BD
:100F800002F0ACFF514A5649564803F041F8564A20
:100F90005649574803F0DFF8564A5749574803F077
:100FA00073F9574A5749584803F005FA284A454902
:100FB000454802F012FF2C4A4549464803F092FA90
:100FC000B3E710B50121880702F0B9F8012812D162
:100FD0000121800702F0C4F84C480068401C4B49CE
:100FE00008604B480068401C49490860494800684F
:100FF000401C4849086010BD0021444A116000BFF0
:10100000424909688142FBD370470000000000207C
:1010100004000020080000200E0000201200002024
:1010200014000020180000202000002021000020D3
:101030008400002084080020300000200D0A207366
:10104000656E643A202000008418002000380140BA
:101050009C1A002020202D2D2D616E642072756E4B
:10106000205253542E0000005C1B002020202D2D08
:101070002D616E642072756E204E4D492E00000069
:101080000D0A00003C1A00200D0A2073746172746E
:1010900020210D0A000000007C1A002066000020BC
:1010A0006C1900206E000020EC1900207800002050
:1010B000640000204C190020650000205C1900200D
:1010C000BC1A0020670000207C190020DC1A0020D8
:1010D0006D000020DC190020680000208C19002021
:1010E000690000209C190020FC1A00206A000020E2
:1010F000AC1900201C1B00206B000020BC19002034
:101100003C1B00206C000020CC1900202400002093
:10111000600000208000002000BF704700BF4C4AE4
:10112000128802F04002002AF9D0C2B2484B1B1DBF
:101130001A80704710B586B00446012144F20400BD
:1011400000F01AFF4FF40070ADF8140003208DF882
:10115000160018208DF8170005A93E4800F030FC55
:101160004FF48060ADF8140004208DF8170005A935
:10117000384800F025FC25208DF8000003208DF86C
:1011800001008DF8020001208DF80300684600F090
:1011900070F801940020ADF80800ADF80A00ADF831
:1011A0000C00ADF810000C20ADF80E0001A9284885
:1011B00002F01DF8012240F22551254802F0AFF857
:1011C000012240F22441224802F0A9F801212048DE
:1011D00002F099F806B010BD10B500BF40F22551DD
:1011E0001B4802F081F9C0B11948001D00881A4956
:1011F0001A4A128888541648001D0088C1B2174840
:1012000002880088401C154B18801348815440F216
:1012100025510F4802F05FF919E040F224410C48D3
:1012200002F062F998B10E48008840F400400C4981
:1012300008800A4800880B49088000200749088078
:1012400003480088C4B20248001D0088C4B210BD23
:1012500000380140000801408418002032000020BE
:10126000300000203400002031490143314A116030
:10127000704770B5002100230F22C47804B32D4CB1
:10128000246804F4E064C4F5E064210AC1F10403B5
:10129000CA40447804FA03F18478144021430901D8
:1012A000254C0678A155047804F01F050124AC40B4
:1012B00005786D11AD0005F1E025C5F8004109E0A4
:1012C000047804F01F050124AC401C4D067876110B
:1012D00045F8264070BD1A4A0A400243154B1B1FB1
:1012E0001A60704739B1134A121D12680243114B3C
:1012F0001B1D1A6006E00F4A121D126882430D4B37
:101300001B1D1A607047042808D14FF0E0210969BD
:1013100041F004014FF0E022116107E04FF0E021BD
:10132000096921F004014FF0E022116170470000CB
:101330000000FA050CED00E000E400E080E100E0D0
:1013400080FFFF1F01460020FE4A106800F03800B1
:10135000084310607047FB49096821F00801F94A09
:10136000116011460968014311607047F549096829
:1013700021F01001F34A1160114609680143116020
:101380007047F148EF494860F04848607047EE48C0
:10139000EC494860ED4848607047EA48006940F011
:1013A0008000E84908617047E648006940F0800025
:1013B000E449086170470420E249C96801F001016D
:1013C00009B101200EE0DF49C96801F0040109B14B
:1013D000022007E0DB49C96801F0100109B10320D0
:1013E00000E00420704700B502460423FFF7E3FF46
:1013F000034603E0FFF7DFFF0346521E012B01D136
:10140000002AF7D102B90523184600BD30B50446BD
:1014100004254FF43020FFF7E6FF0546042D17D1D1
:10142000C848006940F00200C649086108464461A6
:10143000006940F0400008614FF43020FFF7D3FF0F
:101440000546C048006941F6FD710840BD49086184
:10145000284630BD10B504244FF43020FFF7C3FFF9
:101460000446042C16D1B748006940F00400B54981
:1014700008610846006940F0400008614FF43020E0
:10148000FFF7B1FF0446AF48006941F6FB71084021
:10149000AC490861204610BD00B502460423FFF7A1
:1014A0008AFF034603E0FFF786FF0346521E012B27
:1014B00001D1002AF7D102B90523184600BD10B5A5
:1014C00004244FF43020FFF7E7FF0446042C16D124
:1014D0009C48006940F004009A4908610846006988
:1014E00040F0400008614FF43020FFF7D5FF04467C
:1014F0009448006941F6FB71084092490861204612
:1015000010BD00208F49C96901F0020109B1012015
:1015100000E00020704730B5A5250424FFF7F1FF57
:1015200000B100254FF43020FFF75DFF0446042C86
:101530003AD18548834988608448886008460069B4
:1015400040F0200008610846006940F04000086152
:101550004FF43020FFF747FF0446042C1BD1794895
:10156000006941F6DF710840764908610846006964
:1015700040F01000086176480580E002FFF733FF75
:101580000446052C10D06F48006941F6EF71084001
:101590006C49086108E0052C06D06A48006941F6EC
:1015A000EF71084067490861204630BD78B50646AE
:1015B0000C46042500200090E802FFF714FF0546C2
:1015C000042D24D15F48006940F001005D490861A5
:1015D0003480E802FFF707FF0546042D10D1B01C48
:1015E0000090200C00990880E802FFF7FCFE0546F9
:1015F0005448006941F6FE7108405249086106E00E
:101600005048006941F6FE7108404E49086128467D
:1016100078BD70B504460D460426F002FFF7E3FEE0
:101620000646042E11D14748006940F001004549A3
:1016300008612580F002FFF7D6FE064641480069A2
:1016400041F6FE7108403F490861304670BD70B5F3
:1016500005460E460424E002FFF7C5FE0446042CAE
:1016600017D139483749886038488860084600698A
:1016700040F0100008612E80E002FFF7B4FE04463F
:10168000052C06D02F48006941F6EF7108402D491E
:101690000861204670BD2DE9F04304464FF6FF7601
:1016A0003746B046B1460425E443E6B2C4F3072703
:1016B000C4F307484FEA1469E802FFF794FE0546B1
:1016C000042D49D120481F49886020488860084679
:1016D000006940F010000861FF2E06D01C48083059
:1016E0000680E802FFF77FFE0546042D08D1FF2F94
:1016F00006D017480A300780E802FFF774FE054657
:10170000042D0AD1B8F1FF0F07D011480C30A0F812
:101710000080E802FFF767FE0546042D0AD1B9F103
:10172000FF0F07D00A480E30A0F80090E802FFF73C
:101730005AFE0546052D0FD00248006941F6EF71AB
:10174000084007E00020024023016745AB89EFCD48
:1017500000F8FF1F664908612846BDE8F08330B5F0
:10176000054604244FF43020FFF73DFE0446042CC8
:1017700041D160485E4988605F48886008460069DA
:1017800040F0200008610846006940F04000086110
:101790004FF43020FFF727FE0446042C22D1544892
:1017A000006941F6DF710840514908610846006947
:1017B00040F0100008611DB100205049088002E08F
:1017C000A5204E4908804FF43020FFF70CFE044658
:1017D000052C10D04648006941F6EF710840444995
:1017E000086108E0052C06D04148006941F6DF7128
:1017F00008403F490861204630BDF0B505460E4619
:10180000174604243B483A4988603B488860E00218
:10181000FFF7E9FD0446042C19D13548006940F072
:1018200010003349086147F0F8003043284333493A
:10183000891C0880E002FFF7D6FD0446052C06D07F
:101840002B48006941F6EF7108402949086120469C
:10185000F0BD2748C069800870472548006A704776
:1018600000202349096801F0200109B1012000E0AE
:101870000020704729B11E4A126902431C4B1A61AD
:1018800004E01B4A12698243194B1A6170470146F2
:101890000020012908D1164AD26902F001020AB1DA
:1018A000012008E0002006E0114AD2680A400AB18F
:1018B000012000E0002070470D49C86070470420F7
:1018C0000B49C96801F0010109B101200EE0084986
:1018D000C96801F0040109B1022007E00449C968A0
:1018E00001F0100109B1032000E00420704700005E
:1018F0000020024023016745AB89EFCD00F8FF1FB0
:1019000010B50446CC48844208D10121042000F0DF
:101910004DFB0021042000F049FB46E0C74884420B
:1019200008D10121082000F041FB0021082000F02F
:101930003DFB3AE0C248844208D10121102000F06A
:1019400035FB0021102000F031FB2EE0BD48844221
:1019500008D10121202000F029FB0021202000F0E7
:1019600025FB22E0B848844208D10121402000F044
:101970001DFB0021402000F019FB16E0B348844213
:1019800008D10121802000F011FB0021802000F00F
:101990000DFB0AE0AE48844207D10121801500F01A
:1019A00005FB0021A01500F001FB10BD10B50121C1
:1019B000084600F0FBFA0021012000F0F7FA10BD04
:1019C0002DE9F041024600250026002000230024D6
:1019D000002791F803C00CF00F0591F803C00CF03C
:1019E000100CBCF1000F03D091F802C04CEA0505C1
:1019F00091F800C0BCF1000F31D0146800202BE03A
:101A00004FF0010C0CFA00F3B1F800C00CEA030629
:101A10009E4220D183004FF00F0C0CFA03F7BC4319
:101A200005FA03FC4CEA040491F803C0BCF1280F4A
:101A300006D14FF0010C0CFA00FCC2F814C00AE009
:101A400091F803C0BCF1480F05D14FF0010C0CFA1E
:101A500000FCC2F810C0401C0828D1D31460B1F8B3
:101A600000C0BCF1FF0F34DD546800202EE000F10F
:101A7000080C4FF0010808FA0CF3B1F800C00CEAAA
:101A800003069E4221D183004FF00F0C0CFA03F79E
:101A9000BC4305FA03FC4CEA040491F803C0BCF112
:101AA000280F05D100F1080C08FA0CF8C2F81480D0
:101AB00091F803C0BCF1480F07D100F1080C4FF0BA
:101AC000010808FA0CF8C2F81080401C0828CED390
:101AD0005460BDE8F0814FF6FF71018002218170F2
:101AE0000421C17070470246002093680B400BB17F
:101AF000012000E0002070470146886880B27047EE
:101B000002460020D3680B400BB1012000E000200A
:101B100070470146C86880B27047016170474161F3
:101B200070470AB1016100E041617047C1607047D0
:101B30004FF480320A4382618161826182698269E5
:101B4000704702460020434B18684FF680731840D8
:101B500040EA021008433F4B186070473E49C86195
:101B60007047F0B50A46002300240021002500F04C
:101B70000046B6F1004F02D1364EF16901E0354E14
:101B80007168C0F3034583B200F44016B6F5401FF8
:101B900008D121F070612F4E766826F070662D4FC7
:101BA0007E6012E000F48016B6F5801F06D1032691
:101BB00006FA05F4A14341F0706106E0460D3601D6
:101BC00003FA06F6B14341F0706122B1460D3601C9
:101BD00003FA06F6314300F00046B6F1004F02D199
:101BE0001C4EF16101E01B4E7160F0BD30B500226A
:101BF0008B071C0F0F2303FA04F2164B08338C10CB
:101C000053F824309343134C08348D1044F8253096
:101C100023468C1053F824308C07240F00FA04F468
:101C200023430C4C08348D1044F8253030BD0A494C
:101C3000DC3108607047000000080140000C0140E2
:101C4000001001400014014000180140001C014038
:101C50000020014000000140000020420E490860C1
:101C600070470D49486070470B49886070474AF6D5
:101C7000AA200949086070474CF6CC400649086024
:101C8000704701460020044AD2680A400AB1012088
:101C900000E000207047000000300040DF4800688E
:101CA00040F00100DD49086008464068DC49084012
:101CB000DA49486008460068DA490840D7490860B0
:101CC0000846006820F4802008600846406820F438
:101CD000FE0048604FF41F0088607047CF490968D4
:101CE00021F48031CD4A11601146096821F4802128
:101CF0001160B0F5803F03D0B0F5802F0ED106E023
:101D0000C649096841F48031C44A116007E0C349FB
:101D1000096841F4A021C14A116000E000BF00BF82
:101D2000704710B501460022002300204A11012A05
:101D300002D1BA4C236806E0022A02D1B74C236ACA
:101D400001E0B64C636A01F01F02012494401C407C
:101D50000CB1012000E0002010BD38B5002000903B
:101D60000024002500BF3120FFF7DBFF0546009867
:101D7000401C00900098B0F5A06F01D0002DF2D06B
:101D80003120FFF7CEFF08B1012400E000242046F7
:101D900038BD01460020A14A106820F0F80040EA52
:101DA000C10010607047A0490860704702460020DB
:101DB0009A4B586820F47C1042EA01031843974B71
:101DC0005860704798490866704701460020934A5A
:101DD000506820F003000843506070478F48406807
:101DE00000F00C007047014600208C4A506820F03B
:101DF000F00008435060704701460020874A506851
:101E000020F4E06008435060704701460020834A98
:101E1000506820F4605040EAC1005060704729B11A
:101E20007E4A527A02437D4B5A7204E07B4A527AD0
:101E300082437A4B5A7270477B49D83108607047A9
:101E400001460020754A506820F440400843506025
:101E500070470021714A20321170704A82F82010B8
:101E6000012802D004280AD104E001216B4A203263
:101E7000117005E00521694A2032117000E000BFB1
:101E800000BF70476949086070476449096A0143A7
:101E9000624A11627047654944390860704730B53D
:101EA00000210022002400235C4D6D6805F00C0128
:101EB00021B1042905D0082923D105E05C4D056036
:101EC00022E05B4D05601FE0544D6D6805F4701213
:101ED000524D6D6805F48034022505EB92421CB921
:101EE000544D554305600BE04C4D6D6805F40035CD
:101EF0001DB1504D5543056002E04D4D5543056001
:101F000002E04B4D056000BF00BF444D6D6805F019
:101F1000F0010909484D6B5C0568DD4045603F4DA7
:101F20006D6805F4E061090A434D6B5C4568DD406E
:101F300085603A4D6D6805F46051C90A3E4D6B5C91
:101F40004568DD40C560354D6D6805F44041890B3D
:101F50003A4D6B5CC568B5FBF3F5056130BD29B141
:101F60002E4A526902432D4B5A6104E02B4A5269B2
:101F700082432A4B5A61704729B1284A9269024329
:101F8000264B9A6104E0254A92698243234B9A6169
:101F9000704729B1214AD2690243204BDA6104E03B
:101FA0001E4AD26982431D4BDA61704729B11B4A30
:101FB000D2680243194BDA6004E0184AD2688243BF
:101FC000164BDA60704729B1144A12690243134B69
:101FD0001A6104E0114A12698243104B1A6170477A
:101FE00012494039086070470F49C86470470B496F
:101FF000C87170470948406A40F0807007494862DC
:10200000704701460020054A92680A400AB1012043
:1020100000E00020704701498872704700100240BC
:102020000000FFF8FFFFF6FE00004242800442423B
:1020300000127A0000093D00360000204600002012
:1020400010B50446BE48844208D101218014FFF730
:10205000ADFF0021A014FFF7A9FF16E0B9488442A4
:1020600008D101210014FFF7AEFF00212014FFF773
:10207000AAFF0AE0B448844207D10121C013FFF748
:10208000A2FF0021E013FFF79EFF10BD10B5002254
:10209000028802F441520B884C8823438C882343E6
:1020A000CC8823430C8923434C8923438C892343C5
:1020B000CC8923431A430280838B4FF2FF74234061
:1020C00083830B8A038210BD2DE9F04F85B005464E
:1020D0000C464FF0000902274FF000084FF0010BAB
:1020E0000026B246A88B4FF240010840A883022088
:1020F0002884B5F81C90A068022801D100BF38E000
:10210000A08810B94FF0010B01E04FF0020B8D4891
:10211000854200D100E000BF6846FFF7C0FEDDF851
:1021200000A0E088B0F5007F0AD14FEA1A2000EB4A
:1021300080004000A168B0FBF1F0401D86B20BE0CA
:102140004FEA4B10BAFBF0F000EB80004000A168B2
:10215000B0FBF1F0401D86B20A20B6FBF0F606F0A7
:102160000108A6EB0800C0F34F074FF6FF7000EA26
:102170000828022F01DBFF2F02DD02274FF00008A5
:10218000E08840EA080038432884A088A1890843F1
:10219000618808432188084340F4006040EA090947
:1021A000A5F81C9005B0BDE8F08F002101804180AA
:1021B0008180C180018141818181C18107210182AA
:1021C00070470021018041808180C18002218160AF
:1021D00000218181704721B1028842F040020280D3
:1021E00004E002884FF6BF731A400280704721B1A5
:1021F000828B42F48062828304E0828B4FF6FF334D
:102200001A408283704730B5002400230C11012549
:10221000A540ABB21AB185881D43858002E0858850
:102220009D43858030BD1AB183880B43838002E0D3
:1022300083888B43838070478181704701468889FA
:1022400070474FF6FF62914204D0028842F48072D8
:10225000028004E002884FF6FF631A400280704754
:1022600021B1828842F00402828004E082884FF625
:10227000FB731A408280704702884FF2FF731A4046
:10228000028002880A4302807047018841F480512D
:102290000180704721B1028842F40052028004E0BC
:1022A00002884DF6FF731A400280704702460020F4
:1022B000012901D0108B00E0908A70470146088AFE
:1022C0007047B1F5804F04D1028842F48042028009
:1022D00004E002884BF6FF731A4002807047024602
:1022E000002013890B400BB1012000E00020704753
:1022F000CA4302817047F0B5024600200024002343
:10230000002501F00F070126BE40B4B20B110126D3
:102310009E40B3B2968806EA03051689264016B198
:102320000DB1012000E00020F0BD10B5002201F049
:102330000F040123A3409AB2D343038110BD0000D0
:102340000030014000380040003C004010B5044619
:10235000FE48844208D10121C014FFF727FE002166
:10236000E014FFF723FEC4E0B4F1804F08D101214F
:102370000846FFF728FE00210120FFF724FEB8E001
:10238000F348844208D101210220FFF71CFE0021FE
:102390000220FFF718FEACE0EE48844208D101218C
:1023A0000420FFF710FE00210420FFF70CFEA0E040
:1023B000E948844208D101210820FFF704FE0021EA
:1023C0000820FFF700FE94E0E448844208D1012190
:1023D0001020FFF7F8FD00211020FFF7F4FD88E042
:1023E000DF48844208D101212020FFF7ECFD0021C5
:1023F0002020FFF7E8FD7CE0DA48844208D1012183
:102400004014FFF7D3FD00216014FFF7CFFD70E00B
:10241000D548844209D10121C804FFF7C7FD002136
:102420004FF40020FFF7C2FD63E0D048844209D199
:1024300001210805FFF7BAFD00214FF48010FFF7D6
:10244000B5FD56E0CA48844209D101214805FFF78D
:10245000ADFD00214FF40010FFF7A8FD49E0C5488D
:10246000844208D101214020FFF7ADFD002140202A
:10247000FFF7A9FD3DE0C048844208D1012180203A
:10248000FFF7A1FD00218020FFF79DFD31E0BB4853
:10249000844208D101218015FFF795FD0021A01588
:1024A000FFF791FD25E0B648844209D101210804D7
:1024B000FFF77CFD00214FF48030FFF777FD18E037
:1024C000B048844209D101214804FFF76FFD002183
:1024D0004FF40030FFF76AFD0BE0AB48844208D1AF
:1024E00001218804FFF762FD00214FF48020FFF7EF
:1024F0005DFD10BD00220288944B98420ED0994B8E
:1025000098420BD0B0F1804F08D0914B984205D043
:10251000904B984202D0904B984204D14FF68F7363
:102520001A404B881A438D4B984207D08C4B9842E7
:1025300004D04FF6FF431A40CB881A4302808B88A1
:1025400083850B880385814B98420BD0854B98423D
:1025500008D08B4B984205D08A4B984202D08A4BC8
:10256000984201D10B7A038601238382704770B5AC
:10257000002400220023058C4FF6FE7635400584AA
:10258000028C8388048B4FF68F752C40B51E2C402F
:102590000D882C43751E2A400D892A434D882A43F5
:1025A0006A4DA8420BD06F4DA84208D0744DA84286
:1025B00005D0744DA84202D0734DA84213D14FF6F6
:1025C000F7752A404D892A434FF6FB752A408D88BE
:1025D0002A434FF6FF652B404FF6FF552B408D8960
:1025E0002B43CD892B4383800483CD888586028449
:1025F00070BD70B5002400220023058C4FF6EF76E5
:1026000035400584028C8388048B48F6FF752C4086
:102610004FF6FF452C400D884FF6FF7606EA05255C
:102620002C434FF6DF752A400D8906EA05152A432B
:102630004D8806EA05152A43444DA84202D0494D6B
:10264000A8421DD14FF67F752A404D894FF6FF767F
:1026500006EA05152A434FF6BF752A408D8806EA1B
:1026600005152A434FF6FF352B404FF2FF752B40DF
:102670008D8906EA85052B43CD8906EA85052B431E
:1026800083800483CD880587028470BD70B50024E3
:1026900000220023058C4FF6FF6635400584028C2E
:1026A0008388848B4FF68F752C404FF6FC752C4039
:1026B0000D882C434FF6FF552A400D894FF6FF76C3
:1026C00006EA05252A434D8806EA05252A431F4DBB
:1026D000A84202D0234DA8421DD14FF2FF752A40D7
:1026E0004D894FF6FF7606EA05252A434FF6FF355A
:1026F0002A408D8806EA05252A434EF6FF752B40B1
:102700004DF6FF752B408D8906EA05152B43CD89C3
:1027100006EA05152B4383808483CD888587028450
:1027200070BD70B5002200230024058C4EF6FF76A4
:1027300035400584038C8488828B48F6FF752A40D7
:102740004FF6FF452A400D8820E00000002C014094
:102750000004004000080040000C00400010004051
:102760000014004000340140004C01400050014082
:102770000054014000180040001C004000200040B0
:102780000040014000440140004801404FF6FF7600
:1027900006EA05252A434DF6FF752B400D8906EA0A
:1027A00005352B434D8806EA05352B43FA4DA842E3
:1027B00002D0FA4DA84208D14BF6FF752C408D8906
:1027C0004FF6FF7606EA85152C4384808283CD88F8
:1027D000A0F84050038470BD828B4FF2FF331A4043
:1027E0008283828B4FF6FF7303EA01231A438283AD
:1027F0007047F0B50C461546002200210026078CD4
:102800004EF6FF7C07EA0C070784828B018C4FF69B
:10281000FF7707EA043640F6FF473A404FF6FF7766
:1028200007EA05273A434FF6FF7707EA03373A43AB
:10283000D94FB8420ED0D94FB8420BD0B0F1804F2B
:1028400008D0D74FB84205D0D64FB84202D0D64FA5
:10285000B84206D14DF6FF77394046F480573943E8
:1028600005E047F6FF57394044F4805739438283E7
:102870000184F0BD828B4FF6F3731A408283828B02
:102880000A4382837047F0B50C46154600220021AA
:102890000026078C4FF6FF6C07EA0C070784828B33
:1028A000018C4FF6FF7707EA04264FF60C773A4083
:1028B0004FF6FF7707EA03172F433A43B64FB84264
:1028C0000ED0B64FB8420BD0B0F1804F08D0B44F05
:1028D000B84205D0B34FB84202D0B34FB84206D188
:1028E0004FF6FF57394046F48077394305E04FF201
:1028F000FF57394044F48077394382830184F0BD27
:10290000028B4FF2FF331A400283028B4FF6FF73A4
:1029100003EA01231A4302837047F0B50C461546BB
:10292000002200210026078C4FF6EF7C07EA0C07F7
:102930000784028B018C4FF6FF7707EA041640F6F6
:10294000FF473A404FF6FF7707EA03373A434FF61F
:10295000FF7707EA05273A438F4FB8420ED08F4FD3
:10296000B8420BD0B0F1804F08D08D4FB84205D09F
:102970008C4FB84202D08C4FB84206D14FF6DF7769
:10298000394046F01007394305E04FF65F7739408C
:1029900044F01007394302830184F0BD028B4FF6E7
:1029A000F3731A400283028B0A4302837047F0B527
:1029B0000C46154600220021068C4FF6FE773E405D
:1029C0000684028B018C4FF60C7632407E1C06EAA0
:1029D00003162E433243704EB0420ED06F4EB042BB
:1029E0000BD0B0F1804F08D06D4EB04205D06D4E87
:1029F000B04202D06C4EB04206D14FF6FD76314067
:102A000044F00106314305E04FF6F576314044F0DD
:102A10000106314302830184F0BD70B505460C46C2
:102A20005D4885420ED05D4885420BD0B5F1804FA0
:102A300008D05B48854205D05A48854202D05A48A2
:102A4000854200D100E000BF208850B92389A288C8
:102A500061882846FFF7ABFFE1882846FFF79EFF15
:102A600025E0208804280AD12389A2886188284685
:102A7000FFF753FFE1882846FFF742FF17E0208861
:102A800008280AD12389A28861882846FFF7FBFE1F
:102A9000E1882846FFF7EEFE09E02389A2886188D5
:102AA0002846FFF7A6FEE1882846FFF795FE70BD91
:102AB0002DE9F04105460C4600260127608808B93B
:102AC000022600E00026A088012801D1022700E0AC
:102AD00001272088A0B92389A28861882846FFF7AA
:102AE00066FFE1882846FFF759FF23893A463146B9
:102AF0002846FFF712FFE1882846FFF701FF13E0A1
:102B00002389A28861882846FFF707FFE1882846C5
:102B1000FFF7F6FE23893A4631462846FFF747FF7E
:102B2000E1882846FFF73AFFBDE8F0810A884B8824
:102B30001A438B881A43CB881A430B891A434B8953
:102B40001A438B891A43A0F8442070474FF6FF714F
:102B5000818000210180C180418001727047002185
:102B6000018041808180C180018141818181C18159
:102B70007047002101804180012181800021C180B6
:102B8000018170470021018041808180C1800181E5
:102B90004181818170470000002C014000340140D8
:102BA0000004004000080040000C004021B10288F1
:102BB00042F00102028004E002884FF6FE731A40E0
:102BC0000280704731B1B0F8442042F40042A0F8CE
:102BD000442005E0B0F84420C2F30E02A0F84420DF
:102BE00070471AB183890B43838102E083898B4349
:102BF000838170478182704741EA0203A0F8483020
:102C000070471AB183890B43838102E083898B4328
:102C10008381704701894FF6F87211400181704736
:102C20000A46002101894FF68F7319401143018133
:102C3000704730B504460D4629462046FFF7F0FFA1
:102C4000208940F00700208130BD2DE9F041044685
:102C50000D4616461F46602D06D13B4601223146E1
:102C60002046FFF75AFE05E03B460122314620464A
:102C7000FFF79DFE29462046FFF7D2FF208940F04E
:102C800007002081BDE8F08130B50C4600210189A4
:102C9000C9B24FF6FF7505EA0325154325432943BD
:102CA000018130BD2DE9F04105460E461746984694
:102CB000002443463A4631462846FFF7E5FF2C8973
:102CC0004FF6F870044044F007044FF68F7004404C
:102CD00044F070042C81BDE8F081F0B504460D4647
:102CE00016461F463B46324629462046FFF7CCFF94
:102CF000208940F480402081F0BD018582827047A8
:102D00000A46002101884FF68F7319401143018054
:102D10007047F0B50C4615461E46002100220023E0
:102D20000189028B038C4FF6F877394021434FF627
:102D3000FC473A4040F201173A434FF6DD773B40FB
:102D40004FF6FF7707EA06172F433B4301810283C3
:102D50000384F0BD0A460021018B4FF68F731940A2
:102D60001143018370470A460021018B48F6FF7327
:102D700019404FF6FF7303EA02231943018370479A
:102D80000A460021818B4FF68F73194011438183CE
:102D900070470A460021818B48F6FF7319404FF6B1
:102DA000FF7303EA022319438183704721B102882C
:102DB00042F08002028004E002884FF67F731A40DE
:102DC0000280704721B1828842F00402828004E0D0
:102DD00082884FF6FB731A408280704721B1828847
:102DE00042F00802828004E082884FF6F7731A40AE
:102DF0008280704721B1828842F00102828004E023
:102E000082884FF6FE731A40828070470A4600217E
:102E1000018B4FF6F77319401143018370470A463F
:102E20000021018B4FF2FF7319404FF6FF7303EA45
:102E300002231943018370470A460021818B4FF614
:102E4000F77319401143818370470A460021818B33
:102E50004FF2FF7319404FF6FF7303EA0223194341
:102E6000818370470A460021018B4FF6FB7319409E
:102E70001143018370470A460021018B4FF6FF334F
:102E800019404FF6FF7303EA022319430183704789
:102E90000A460021818B4FF6FB7319401143818351
:102EA00070470A460021818B4FF6FF3319404FF6D9
:102EB000FF7303EA02231943818370470A46002106
:102EC000018B4FF67F7319401143018370470A4607
:102ED0000021018BC1F30E014FF6FF7303EA0223B9
:102EE0001943018370470A460021818B4FF67F7397
:102EF00019401143818370470A460021818BC1F339
:102F00000E014FF6FF7303EA0223194381837047D2
:102F10000A460021018C4FF6FD73194011430184CC
:102F200070470A460021018C4FF6F7731940114390
:102F3000018470470A460021018C4FF6DF73194067
:102F40004FF6FF7303EA02131943018470470A46E0
:102F50000021018C4FF67F7319404FF6FF7303EA8F
:102F600002131943018470470A460021018C4FF671
:102F7000FF5319404FF6FF7303EA022319430184FC
:102F800070470A460021018C4FF2FF7319404FF63B
:102F9000FF7303EA02231943018470470A460021A4
:102FA000018C4DF6FF7319404FF6FF7303EA0233AD
:102FB00019430184704730B5002301248C40A3B22B
:102FC000048C9C430484048C02FA01F5ADB22C43BA
:102FD000048430BD30B5002304248C40A3B2048C9B
:102FE0009C430484048C02FA01F5ADB22C430484A2
:102FF00030BD70B503460020002418461830012566
:103000008D40ACB21D8CA5431D8409B1082909D19E
:1030100000EB6100056825F0700505600568154343
:1030200005600EE00D1FC5F34E052844056825F424
:10303000E045056005684FF6FF7606EA022635434F
:10304000056070BD21B1028842F00202028004E0F6
:1030500002884FF6FD731A400280704721B1028842
:1030600042F00402028004E002884FF6FB731A402B
:103070000280704721B1828842F08002828004E0A1
:1030800082884FF67F731A408280704702884FF61D
:10309000F7731A40028002880A43028070478288D0
:1030A0004FF68F731A40828082880A43828070476D
:1030B00002894FF6F8731A40028102890A4302819D
:1030C000704702894FF67F731A40028102890A43D2
:1030D000028170478184704781857047818670477F
:1030E0000187704781877047A0F8401070470288B9
:1030F0004FF6FF431A40028002880A43028070475D
:103100000146888E70470146088F70470146888FB8
:1031100070470146B1F8400070470146888C7047FF
:103120000146088D704702460020138A0B400BB100
:10313000012000E000207047CA430282704730B58A
:103140000246002000230024158A05EA0103958920
:1031500005EA010413B10CB1012000E0002030BDEC
:10316000CA4302827047000010B50446FB488442FF
:1031700009D101218803FEF719FF00214FF4804097
:10318000FEF714FF32E0F648844209D101214804D9
:10319000FEF719FF00214FF40030FEF714FF25E081
:1031A000F048844209D101218804FEF70CFF002178
:1031B0004FF48020FEF707FF18E0EB48844209D166
:1031C0000121C804FEF7FFFE00214FF40020FEF7A6
:1031D000FAFE0BE0E548844208D101210805FEF71C
:1031E000F2FE00214FF48010FEF7EDFE10BD2DE938
:1031F000F04786B005460E460024A24600BFA14611
:103200000027B08900B100BF2F462C8A4CF6FF7012
:103210000440F08804432C82AC894EF6F31004403D
:10322000B08831890843718908430443AC81AC8A72
:103230004FF6FF400440B0890443AC8201A8FEF77A
:103240002EFEC648874202D1DDF810A001E0DDF86D
:103250000CA0A88900F4004040B10AEBCA0000EBC2
:103260000A1031684900B0FBF1F807E00AEBCA0028
:1032700000EB0A1031688900B0FBF1F86420B8FB5C
:10328000F0F004012009642101FB1089A88900F4F1
:10329000004040B1322000EBC900B0FBF1F000F07B
:1032A0000700044308E0322000EB09106421B0FB62
:1032B000F1F000F00F0004432C8106B0BDE8F08768
:1032C0004FF41651016000218180C18001810C21E1
:1032D000418100218181704710B502460020108A8B
:1032E0004FF2FF0318400B884C8823438C882343FC
:1032F000CC8823431843108210BD002101804180F7
:103300008180C180704721B1828942F4005282815C
:1033100004E082894DF6FF731A4082817047F0B550
:103320000346002400260025002040F66A17B94213
:1033300000D100BF1846C1F3421401F01F06012757
:1033400007FA06F5012C01D10C3004E0022C01D162
:10335000103000E014301AB107682F43076002E014
:103360000768AF430760F0BD1AB1838A0B438382BD
:1033700002E0838A8B4383827047028A4FF6F073A0
:103380001A400282028A0A430282704782894FF2FF
:10339000FF731A40828182890A438281704721B17A
:1033A000828942F00202828104E082894FF6FD7335
:1033B0001A4082817047028A4FF6DF731A400282F8
:1033C000028A0A430282704721B1028A42F4804293
:1033D000028204E0028A4BF6FF731A4002827047B1
:1033E000C1F308028280704701468888C0F3080054
:1033F0007047818941F0010181817047028BD2B20F
:103400000283028B42EA012202837047028B02F49C
:103410007F420283028B0A430283704721B1828A72
:1034200042F02002828204E0828A4FF6DF731A4063
:103430008282704721B1828A42F01002828204E0C7
:10344000828A4FF6EF731A408282704721B1828AD6
:1034500042F00802828204E0828A4FF6F7731A4033
:103460008282704721B1828942F40042828103E066
:103470008289C2F30E028281704721B1828A42F4AE
:103480000062828204E0828A4FF2FF731A408282D5
:103490007047828A4FF6FB731A408282828A0A43FF
:1034A0008282704721B1828A42F00202828204E065
:1034B000828A4FF6FD731A408282704702460020CE
:1034C000B1F5007F00D100BF13880B400BB1012084
:1034D00000E00020704701F40072B2F5007F00D1D7
:1034E00000BFCA430280704770B502460024002323
:1034F0000025002040F66A16B14200D100BFC1F39A
:10350000421501F01F03012606FA03F3012D02D133
:103510009689334006E0022D02D1168A334001E03D
:10352000968A33400C12012606FA04F416883440B9
:1035300013B10CB1012000E0002070BD10B50022D5
:10354000002340F66A14A14200D100BF0A120124F0
:103550009440A3B2DC43048010BD00000038014059
:103560000044004000480040004C00400050004033
:103570000CB50020019000906C48006840F4803049
:103580006A49086000BF6948006800F40030009094
:103590000198401C0190009818B90198B0F5A06FEF
:1035A000F1D16248006800F4003010B101200090B1
:1035B00001E0002000900098012843D15C48006899
:1035C00040F010005A4908600846006820F00300E7
:1035D00008600846006840F00200086053484068F0
:1035E000524948600846406848600846406840F4D0
:1035F000806048600846406820F47C1048600846B7
:10360000406840F4E81048600846006840F0807068
:10361000086000BF4548006800F000700028F9D03D
:103620004248406820F0030040494860084640682E
:1036300040F00200486000BF3C48406800F00C00C9
:103640000828F9D10CBD10B5FFF792FF10BD10B5D9
:103650003648006840F00100344908600846406878
:1036600034490840314948600846006832490840FA
:103670002E4908600846006820F48020086008464B
:10368000406820F4FE0048604FF41F008860FFF798
:10369000DAFF4FF000602949086010BD10B5002125
:1036A00000200022214B5B6803F00C0121B10429AA
:1036B00006D0082928D107E0214B224C236027E0BF
:1036C0001F4B204C236023E0184B5B6803F4701001
:1036D000164B5B6803F48032022303EB904022B95F
:1036E000194B4343174C23600DE0104B5B6803F408
:1036F000003323B1144B4343124C236003E0104BBF
:103700004343104C236003E00D4B0E4C236000BF7D
:1037100000BF064B5B68C3F303130C4CE15C094B21
:103720001B68CB40074C236010BD00000010024016
:10373000002002400000FFF8FFFFF6FE08ED00E069
:1037400000127A004C00002000093D0050000020CB
:103750000948804709480047FEE7FEE7FEE7FEE725
:10376000FEE7FEE7FEE7FEE7FEE7FEE70448054961
:10377000054A064B704700004F360008310100082B
:10378000C01D0020C0230020C01F0020C01F00203B
:103790004168491C4160D0E90121914203D10121D6
:1037A000016000214160704700B52648006878B389
:1037B0000020244908602448FFF7EAFF2348FFF768
:1037C000E7FF2348FFF7E4FF2248FFF7E1FF224825
:1037D000FFF7DEFF2148FFF7DBFF2148FFF7D8FFA7
:1037E0002048FFF7D5FF2048FFF7D2FF1F48FFF71B
:1037F000CFFF1F48FFF7CCFF1E48FFF7C9FF1E4849
:10380000FFF7C6FF1D48FFF7C3FF1D48FFF7C0FFC6
:1038100000BD10B50024046044608160C26065246E
:103820001C7010BD10B50024046044608160C2604B
:1038300064241C7010BD0268012A01D1027B0A7049
:1038400070470000600000204C1900205C19002027
:103850006C1900207C1900208C1900209C19002074
:10386000AC190020BC190020CC190020DC19002064
:10387000EC190020FC1900200C1A00201C1A002052
:103880002C1A00200120F9490870F9490870F949FB
:103890000870F9490870F9490870F9490870F94940
:1038A0000870F9490870F9490870F9490870F94930
:1038B0000870F9490870F9490870F9490870F94920
:1038C00008700020F849C870012008704870002076
:1038D0008870704770B506460C4615462078342827
:1038E00032D007DC082877D2DFE800F0E01538573F
:1038F0007998B9C8382870D006DC352843D03628E6
:1039000060D0372868D17FE0642867D065287AD0F6
:10391000C828F7D1C9E0A87C012814D1E348007871
:10392000012810D10020A8744FF48041E048FEF730
:10393000F4F80020DF498874234634224FF41671CE
:103940003046FFF76FFFB2E00020DA498874234663
:10395000022211463046FFF765FFA8E0D548807C7B
:1039600001280FD18103D248FEF7D9F84FF4006146
:10397000CF48FEF7D2F8234635224FF41671304671
:10398000FFF750FF93E00020CB49887423460322C1
:1039900002213046FFF746FF89E0C748807C0128B6
:1039A0000FD1C102C248FEF7BAF84FF48061C04897
:1039B000FEF7B3F8234636224FF416713046FFF770
:1039C00031FF74E00020BD4988742346042202219F
:1039D0003046FFF727FF6AE068E036E05BE0B74873
:1039E000807C01280ED18102B148FEF798F8202191
:1039F000B348FEF792F8234637224FF4167130464B
:103A0000FFF710FF53E04BE00020AE4988742346D7
:103A1000052202213046FFF705FF48E0A948807CD7
:103A2000012811D12021A648FEF779F80421A448E5
:103A3000FEF773F80020A4498874234638224FF417
:103A400016713046FFF7EEFE31E000209E49887483
:103A50002346062202213046FFF7E4FE27E09A487B
:103A6000807C012809D104219548FEF758F82346A7
:103A7000072202213046FFF7D5FE18E000208B49CF
:103A80000870012091490870234601220221304626
:103A9000FFF7C8FE0BE021463046FFF7CCFE06E0FC
:103AA00021463046FFF7C7FE01E000E000BF00BF3F
:103AB00070BD70B506460C4615462078092874D0AE
:103AC00007DC73D2DFE800F072162B3549536776B6
:103AD0008D0064286BD006DC0A2869D00B2868D0DA
:103AE000142863D1B5E0652879D0662878D0C82835
:103AF000F7D118E1A87C012810D17448007801287A
:103B00000CD10020A87408216D48FEF706F8234662
:103B100002224FF416713046FFF784FE05E10020C3
:103B20006B4988742346032202213046FFF77AFE50
:103B3000FBE06748807C01280ED108216048FDF732
:103B4000EEFF10215E48FDF7E8FF234604224FF404
:103B500016713046FFF766FEE7E000205D49887485
:103B60002346052202213046FFF75CFEDDE059487E
:103B7000807C01280ED141034D48FDF7CEFF102176
:103B80004F48FDF7CCFF234606224FF4167130460E
:103B9000FFF748FEC9E000204F49887423460722FA
:103BA00002213046FFF73EFEBFE024E0BCE099E092
:103BB00036E03FE04848807C01280FD141033C4873
:103BC000FDF7ADFF4FF480513948FDF7A6FF2346BE
:103BD00008224FF416713046FFF724FEA5E086E078
:103BE0008AE000203D49887423460922022130469C
:103BF000FFF718FE99E03948807C01280FD10103B6
:103C00002B48FDF78CFF4FF400712948FDF785FF25
:103C100023460A224FF416713046FFF703FE84E074
:103C200000202F49887423460B2202213046FFF7DB
:103C3000F9FD7AE02A48807C012809D141021C481C
:103C4000FDF76DFF2346142202213046FFF7EAFDFF
:103C50006BE001201549087000201C4908702346BC
:103C6000012202213046FFF7DDFD5EE06400002006
:103C7000650000206600002067000020680000202A
:103C8000690000206A0000206B0000206C0000200A
:103C90006D0000206E0000206F00002070000020EA
:103CA0007100002072000020790000207E000020BA
:103CB000002001401C1C00205C1C00209C1C0020DB
:103CC00000140140DC1C00201C1D00207D00002091
:103CD0003C1D0020FC1C00203C1C00207C1C002003
:103CE000BC1C002021463046FFF7A5FD1DE0214603
:103CF0003046FFF7A0FD18E04FF40071F948FDF7DA
:103D00000EFF4FF48071F848FDF707FF4FF4807104
:103D1000F448FDF704FF234602224FF4FA713046BF
:103D2000FFF780FD01E000E000BF00BF70BD70B58F
:103D300006460D4614462878642827D006DC01285C
:103D40000BD002281AD0062844D11EE0652822D0C4
:103D500066282AD0C8283DD13BE0A07C012805D1A7
:103D60000020A0740120E149087006E0207D0128B0
:103D700003D100202075DD4908702CE02B460B2272
:103D800005213046FFF74EFD25E024E02946304668
:103D9000FFF751FD1FE029463046FFF74CFD207F1D
:103DA000012801D16620287015E01021D048FDF7C8
:103DB000B6FE2021CE48FDF7B0FE0821CC48FDF725
:103DC000AEFE2B4602224FF4FA713046FFF72AFD71
:103DD00001E000E000BF00BF70BD70B506460D46B3
:103DE000144628780B282FD007DC072873D2DFE889
:103DF00000F0720D1F3742724B00642845D06528D1
:103E000048D0662850D0C82865D163E0A07C01283E
:103E10000DD10020A0744FF48071B248FDF77DFEF3
:103E20002B4602224FF42F713046FFF7FBFC53E084
:103E30004FF48071AB48FDF772FE2B460B22052133
:103E40003046FFF7EFFC47E08021A648FDF765FE0E
:103E50002B4603224FF42F713046FFF7E3FC3BE083
:103E60008021A048FDF75BFE2B460422022130464C
:103E7000FFF7D8FC30E02B46012232213046FFF715
:103E8000D1FC0020A07427E026E029463046FFF749
:103E9000D2FC21E029463046FFF7CDFC207F0128E7
:103EA00001D16620287017E001219148FDF737FE07
:103EB00002218F48FDF731FE4FF480518948FDF70C
:103EC0002EFE2B4602224FF4FA713046FFF7AAFC71
:103ED00002E000E000E000BF00BF70BD70B5064624
:103EE0000D46144628780B2833D007DC07286ED2FD
:103EF000DFE800F08B112338525E670066286DD032
:103F000004DC64285ED065287FD162E067283BD05E
:103F1000C8287AD178E0A07C01280DD10020A074B7
:103F20004FF480417348FDF7F8FD2B46022240F222
:103F300052313046FFF776FC68E04FF480416D481F
:103F4000FDF7EDFD2B460B2205213046FFF76AFCFD
:103F50005CE00020A0742B46032202213046FFF7CC
:103F600061FC53E0A07C01280DD10020A0742077D3
:103F70004FF400515F48FDF7D0FD2B466722022128
:103F80003046FFF74FFC41E02B46042240F252310D
:103F90003046FFF73EFC39E04FF400515548FDF73D
:103FA000BEFD2B46052232213046FFF73BFC2DE0BB
:103FB0000020A0742B46012232213046FFF732FC4C
:103FC00024E023E029463046FFF735FC1EE01CE0E4
:103FD00004E029463046FFF72EFC17E04FF400714D
:103FE0004448FDF79CFD4FF480614248FDF795FD84
:103FF00080213F48FDF793FD2B4602224FF4FA71D2
:104000003046FFF70FFC01E000E000BF00BF70BDCD
:1040100070B506460D46144628780B2833D007DCC9
:10402000072869D2DFE800F0941123385269720042
:10403000662877D004DC642869D065285CD16CE000
:1040400067283BD0C828F9D181E0A07C01280DD198
:104050000020A0744FF480612648FDF75EFD2B46DA
:10406000022240F252313046FFF7DCFB71E04FF4A0
:1040700080612048FDF753FD2B460B220521304679
:10408000FFF7D0FB65E00020A0742B46032202213D
:104090003046FFF7C7FB5CE0A07C01280DD1002073
:1040A000A07420774FF400711248FDF736FD2B46BF
:1040B000672202213046FFF7B5FB4AE02B46042277
:1040C00040F252313046FFF7A4FB42E04FF400715A
:1040D0000848FDF724FD2B46052232213046FFF724
:1040E000A1FB36E0001001400008014078000020EC
:1040F00000140140002001402AE00020A0742B465B
:10410000012232213046FFF78DFB22E021E02946D3
:104110003046FFF790FB1CE004E029463046FFF7ED
:104120008AFB16E04FF48071F748FDF7F8FC402158
:10413000F648FDF7F2FC8021F348FDF7F0FC2B4632
:1041400002224FF4FA713046FFF76CFB01E000E009
:1041500000BF00BF70BD70B506460D4614462878F6
:104160000B2833D007DC072873D2DFE800F08A1170
:104170002338525E670066286DD004DC64285ED068
:1041800065287ED160E067283BD0C82879D177E0E8
:10419000A07C01280DD10020A0744FF40061DA4802
:1041A000FDF7BBFC2B46022240F252313046FFF7AE
:1041B00039FB67E04FF40061D348FDF7B0FC2B46B4
:1041C0000B2205213046FFF72DFB5BE00020A07499
:1041D0002B46032202213046FFF724FB52E0A07C4D
:1041E00001280DD10020A07420774FF48051C648DB
:1041F000FDF793FC2B46672202213046FFF712FBA6
:1042000040E02B46042240F252313046FFF701FBDA
:1042100038E04FF48051BC48FDF781FC2B46052265
:1042200032213046FFF7FEFA2CE00020A0742B4626
:10423000012232213046FFF7F5FA23E022E0294639
:104240003046FFF7F8FA1DE029463046FFF7F3FA4B
:1042500018E016E0FFE70421AB48FDF760FC0821F9
:10426000A948FDF75AFC4FF40041A948FDF757FC57
:104270002B4602224FF4FA713046FFF7D3FA01E0E1
:1042800000E000BF00BF70BD70B506460D46144685
:1042900028780B2831D007DC07286FD2DFE800F040
:1042A000881122364F5A6300662869D004DC6428DE
:1042B0005AD065287CD15CE0672838D0C82877D1EF
:1042C00075E0A07C01280CD10020A074202190482A
:1042D000FDF723FC2B46022240F252313046FFF715
:1042E000A1FA66E020218A48FDF719FC2B460B2233
:1042F00005213046FFF796FA5BE00020A0742B46BC
:10430000032202213046FFF78DFA52E0A07C0128FB
:104310000CD10020A074207710217D48FDF7FDFB13
:104320002B46672202213046FFF77CFA41E02B46FC
:10433000042240F252313046FFF76BFA39E0102187
:104340007348FDF7ECFB2B4605220A213046FFF7A8
:1043500069FA2EE00020A0742B4601220A21304683
:10436000FFF760FA25E024E029463046FFF763FABC
:104370001FE029463046FFF75EFA1AE018E0FFE733
:104380004FF480516248FDF7CAFB4FF4005160487A
:10439000FDF7C3FB4FF400615D48FDF7C0FB2B4602
:1043A00002224FF4FA713046FFF73CFA01E000E0D8
:1043B00000BF00BF70BD70B506460D461446287894
:1043C0000B2831D007DC07286FD2DFE800F0881116
:1043D00022364F5A6300662869D004DC64285AD01C
:1043E00065287CD15CE0672838D0C82877D175E093
:1043F000A07C01280CD10020A07404214448FDF7C2
:104400008CFB2B46022240F252313046FFF70AFA6B
:1044100066E004213E48FDF782FB2B460B22052176
:104420003046FFF7FFF95BE00020A0742B46032223
:1044300002213046FFF7F6F952E0A07C01280CD1AA
:104440000020A074207708213148FDF766FB2B4639
:10445000672202213046FFF7E5F941E02B460422AE
:1044600040F252313046FFF7D4F939E008212848AC
:10447000FDF755FB2B46052232213046FFF7D2F9D6
:104480002EE00020A0742B46012232213046FFF797
:10449000C9F925E024E029463046FFF7CCF91FE0B2
:1044A00029463046FFF7C7F91AE018E0FFE74FF456
:1044B00080511848FDF733FB4FF400511548FDF7C4
:1044C0002CFB4FF400611348FDF729FB2B46022219
:1044D0004FF4FA713046FFF7A5F901E000E000BFA4
:1044E00000BF70BD70B506460D46144628780B28EF
:1044F00039D011DC012818D0022828D003283FD059
:1045000004287AD148E0000000200140001001405A
:1045100000140140000C0140642846D0652849D0B1
:10452000662851D0C82868D166E0A07C01280DD14A
:104530000020A0744FF480715948FDF7EEFA2B4625
:1045400002224FF42F713046FFF76CF956E04FF41A
:1045500080715348FDF7E3FA2B460B2205213046C4
:10456000FFF760F94AE04FF400714E48FDF7D5FAC5
:104570002B4603224FF42F713046FFF753F93DE0ED
:104580004FF400714748FDF7CAFA2B460422022176
:104590003046FFF747F931E02B4601223221304601
:1045A000FFF740F90020A07428E029463046FFF7C5
:1045B00042F923E029463046FFF73DF9207F0128E4
:1045C00001D16620287019E04FF480413648FDF78C
:1045D000A6FA4FF400413448FDF79FFA4FF400511A
:1045E0003148FDF79CFA2B4602224FF4FA7130460F
:1045F000FFF718F902E000E000E000BF00BF70BD67
:1046000070B505460C462078032826D004DC012826
:1046100007D002282ED112E0642825D0C82829D13D
:1046200027E04FF480612148FDF779FAFCF7FFFAA3
:1046300023460222C8212846FFF7F4F81BE04FF476
:1046400080611A48FDF769FAFCF7F1FA2346012266
:10465000C8212846FFF7E6F80DE023460122032192
:104660002846FFF7DFF806E021462846FFF7E3F883
:1046700001E000E000BF00BF70BD012080F313889F
:1046800000BF00BF0A48006800F4E0600949084321
:10469000001D07490860BFF34F8F00BF00BFFEE752
:1046A000000801400010014000180140000C0140CA
:1046B0000CED00E00000FA05417C012902D06429DC
:1046C0000DD10BE00168032907D9012141740021B4
:1046D0000174012181740021C17401E000E000BF78
:1046E00000BF7047417C03292ED004DC012907D08C
:1046F00002292ED11AE0042929D0642929D127E0E2
:104700000168032907D902214174002101740121A4
:1047100081740021C1744168032901D90121017507
:104720008168022901D90121017713E04168032939
:1047300004D9032141740121C174017581680229E2
:1047400001D90121017705E00121417402E001E076
:1047500000E000BF00BF704710B50446607C012830
:1047600006D0022817D003281DD0642824D122E0C7
:1047700020680A2805D90120A07400202075022095
:10478000607460680A2805D9012020750020A07493
:104790000320607411E060680A2803D90120607466
:1047A000FFF76BFF09E020680A2803D90120607435
:1047B000FFF763FF01E000E000BF00BF10BD10B5D0
:1047C000F84800680A287CD30020F64908604FF4B6
:1047D0008071F548FDF787F9C0B94FF40071F248D0
:1047E000FDF781F990B90221F048FDF77CF968B92D
:1047F000EF480068FA2803D9C820ED49086008E0AE
:10480000EB480068401CEA49086002E00020E849E3
:1048100008604FF48071E448FDF765F9012813D171
:104820004102E148FDF75FF901280DD1E0484068F9
:10483000FA2803D9C820DE49486008E0DC4840680F
:10484000401CDB49486002E00020D94948604FF431
:104850000071D548FDF747F990B98021D248FDF79E
:1048600042F968B9D3480068FA2803D9C820D14969
:10487000086008E0CF480068401CCE49086002E0AC
:104880000020CC4908604FF40071C748FDF72BF9B0
:10489000012805D1C7484068401CC649486002E06D
:1048A0000020C44948608021BF48FDF71CF9012859
:1048B0000ED1C0488068FA2804D9C820BD49886054
:1048C00009E03CE3BB488068401CBA49886002E0CC
:1048D0000020B84988600121B448FDF704F968B99F
:1048E000B5480068FA2803D9C820B349086008E031
:1048F000B1480068401CB049086002E00020AE49A1
:1049000008600121A948FDF7EEF8012805D1AA4861
:104910004068401CA849486002E00020A649486061
:104920004021A248FDF7DFF898B94FF40041A348B1
:10493000FDF7D9F868B9A2480068FA2803D9C82059
:104940009F49086008E09E480068401C9C49086038
:1049500002E000209A49086040219448FDF7C3F81E
:1049600001280DD196484068FA2803D9C8209449F7
:10497000486008E092484068401C9149486002E065
:1049800000208F4948604FF400418C48FDF7ABF898
:1049900001280DD18A488068FA2803D9C82088499F
:1049A000886008E086488068401C8549886002E08D
:1049B00000208349886040217C48FDF794F868B95D
:1049C00080480068FA2803D9C8207E49086008E0BA
:1049D0007C480068401C7B49086002E0002079495F
:1049E000086040217148FDF77EF801280DD1754817
:1049F0004068FA2803D9C8207249486008E0714825
:104A00004068401C6F49486002E000206D494860E2
:104A10004FF400516948FDF766F868B96A480068C4
:104A2000FA2803D9C8206849086008E06648006889
:104A3000401C6549086002E00020634908604FF4AB
:104A400000515E48FDF74FF801280DD15E484068DF
:104A5000FA2803D9C8205C49486008E05A484068F1
:104A6000401C5949486002E00020574948604FF413
:104A700080415248FDF737F868B954480068FA2871
:104A800003D9C8205149086008E050480068401C1C
:104A90004E49086002E000204C4908604FF4804114
:104AA0004648FDF720F801280DD148484068FA280B
:104AB00003D9C8204549486008E044484068401C84
:104AC0004249486002E00020404948604FF40041FC
:104AD0003A48FDF708F868B93D480068FA2803D954
:104AE000C8203B49086008E039480068401C384944
:104AF000086002E00020364908604FF400412F486A
:104B0000FCF7F1FF01280DD131484068FA2803D99C
:104B1000C8202F49486008E02D484068401C2C49B7
:104B2000486002E000202A4948604FF4807129481B
:104B3000FCF7D9FF68B928480068FA2803D9C820CB
:104B40002549086008E024480068401C22490860A4
:104B500002E00020204908604FF480711D48FCF7F6
:104B6000C2FF01280DD11C484068FA2803D9C8208B
:104B70001949486008E018484068401C16494860D8
:104B800002E000201449486080210748FCF7ABFF91
:104B900038B912480068FA2822D9C8200F4908609D
:104BA00027E023E080000020000C014000180140B5
:104BB0003C1A00205C1A00207C1A002000100140E2
:104BC0009C1A0020BC1A0020DC1A0020FC1A0020CD
:104BD0001C1B0020001C01403C1B00201C1C002052
:104BE000FE480068401CFD49086002E00020FB49C7
:104BF00008608021FA48FCF776FF01280DD1F748BC
:104C00004068FA2803D9C820F449486008E0F3480E
:104C10004068401CF149486002E00020EF494860CC
:104C20001021EF48FCF75FFF68B9EE480068FA28EA
:104C300003D9C820EB49086008E0EA480068401C36
:104C4000E849086002E00020E64908601021E448D5
:104C5000FCF749FF01280DD1E2484068FA2803D942
:104C6000C820E049486008E0DE484068401CDD4953
:104C7000486002E00020DB4948600821DA48FCF780
:104C800032FF68B9D9480068FA2803D9C820D74943
:104C9000086008E0D5480068401CD449086002E07C
:104CA0000020D24908600821CF48FCF71CFF0128EA
:104CB0000DD1CE484068FA2803D9C820CB494860B6
:104CC00008E0CA484068401CC849486002E000202B
:104CD000C64948600421C448FCF705FF68B9C448C8
:104CE0000068FA2803D9C820C149086008E0C04814
:104CF0000068401CBE49086002E00020BC49086012
:104D00000421B948FCF7EFFE01280DD1B8484068EE
:104D1000FA2803D9C820B649486008E0B44840687A
:104D2000401CB349486002E00020B14948604FF49C
:104D30000071B048FCF7D7FE68B9AF480068FA28A0
:104D400003D9C820AC49086008E0AB480068401CA3
:104D5000A949086002E00020A74908604FF40071EB
:104D6000A448FCF7C0FE01280DD1A3484068FA28EA
:104D700003D9C820A049486008E09F484068401C0B
:104D80009D49486002E000209B4948604FF4004183
:104D90009A48FCF7A8FE68B999480068FA2803D930
:104DA000C8209749086008E095480068401C94496D
:104DB000086002E00020924908604FF400418F48EB
:104DC000FCF791FE01280DD18D484068FA2803D9DF
:104DD000C8208B49486008E089484068401C8849E1
:104DE000486002E000208649486002218148FCF7C3
:104DF0007AFE68B983480068FA2803D9C820814937
:104E0000086008E07F480068401C7E49086002E0B6
:104E100000207C49086002217648FCF764FE0128E6
:104E20000DD178484068FA2803D9C82075494860F0
:104E300008E074484068401C7249486002E0002065
:104E40007049486001216B48FCF74DFE68B96E4817
:104E50000068FA2803D9C8206B49086008E06A484E
:104E60000068401C6849086002E00020664908604C
:104E700001216048FCF737FE01280DD162484068E7
:104E8000FA2803D9C8206049486008E05E484068B5
:104E9000401C5D49486002E000205B4948600821F1
:104EA0005448FCF720FE68B958480068FA2803D92E
:104EB000C8205649086008E054480068401C53491F
:104EC000086002E000205149086008214948FCF7C9
:104ED0000AFE01280DD14D484068FA2803D9C820A0
:104EE0004A49486008E049484068401C47494860D2
:104EF00002E000204549486004213E48FCF7F3FDEC
:104F000068B943480068FA2803D9C82040490860B6
:104F100008E03F480068401C3D49086002E000206E
:104F20003B49086004213348FCF7DDFD01280DD121
:104F300037484068FA2803D9C8203549486008E056
:104F400033484068401C3249486002E00020304944
:104F500048603048FFF7C6FB2F48FFF7C3FB2F48D8
:104F6000FFF7FAFB2E48FFF7BDFB2E48FFF7BAFB11
:104F70002D48FFF7B7FB2D48FFF7B4FB2C48FFF790
:104F8000B1FB2C48FFF7AEFB2B48FFF7ABFB2B48E0
:104F9000FFF7A8FB2A48FFF7A5FB2A48FFF7A2FB6B
:104FA0002948FFF79FFB0D48FFF786FB0D48FFF7E9
:104FB00083FB0E48FFF780FB0D48FFF77DFB0E4893
:104FC000FFF77AFB0E48FFF777FB0E48FFF774FBFD
:104FD0000D48FFF771FB0D4838E000001C1C002055
:104FE000000C01403C1C0020001801405C1C00200B
:104FF0007C1C0020001C01409C1C00200020014063
:10500000BC1C0020DC1C0020FC1C00201C1D0020FF
:105010003C1D00203C1A00205C1A00207C1A002055
:105020009C1A0020BC1A0020DC1A0020FC1A002068
:105030001C1B00203C1B00205C1B00207C1B002054
:105040009C1B0020BC1B0020DC1B0020FFF734FB56
:105050004648FFF731FB10BD002181614175817425
:10506000C174017501214174002101740160416026
:10507000C160704700B53E48FFF7EEFF3D48FFF7BF
:10508000EBFF3D48FFF7E8FF3C48FFF7E5FF3C48F2
:10509000FFF7E2FF3B48FFF7DFFF3B48FFF7DCFF8E
:1050A0003A48FFF7D9FF3A48FFF7D6FF3948FFF7EC
:1050B000D3FF3948FFF7D0FF3848FFF7CDFF384816
:1050C000FFF7CAFF3748FFF7C7FF3748FFF7C4FFAE
:1050D0003648FFF7C1FF3648FFF7BEFF3548FFF7F8
:1050E000BBFF3548FFF7B8FF3448FFF7B5FF34483A
:1050F000FFF7B2FF1D48FFF7AFFF3248FFF7ACFFE5
:105100003148FFF7A9FF3148FFF7A6FF00BD417CFA
:1051100003291DD004DC012907D0022923D10CE08A
:10512000042919D064291ED11CE00168052903D97E
:10513000022141740021017416E00168B1F5967FE7
:1051400000D900BF4168042901D9032141740BE053
:1051500001218174417407E04168042901D90121CA
:10516000417401E000E000BF00BF70473C1D00201B
:105170003C1A00205C1A00207C1A00209C1A002097
:10518000BC1A0020DC1A0020FC1A00201C1B002086
:105190003C1B00205C1B00207C1B00209C1B002073
:1051A000BC1B0020DC1B0020FC1B00201C1C002062
:1051B0003C1C00207C1C00205C1C0020BC1C00202F
:1051C0009C1C00201C1D0020FC1C0020DC1C00205E
:1051D000704700000FB4044910B503AA029800F00C
:1051E0004FF810BC5DF814FB2C000020032A40F29D
:1051F000308010F0030C00F0158011F8013BBCF179
:10520000020F624498BF11F801CB00F8013B38BF90
:1052100011F8013BA2F1040298BF00F801CB38BF9E
:1052200000F8013B11F0030300F03C80083AC0F0A5
:10523000088051F8043B083A51F804CBA0E8081064
:10524000F5E7121D5CBF51F8043B40F8043BAFF397
:105250000080D20724BF11F8013B11F801CB48BFF1
:1052600011F8012B24BF00F8013B00F801CB48BF27
:1052700000F8012B70477047704770477047000077
:10528000074B70B50D467B4400F043F804462846B2
:1052900000F052F810B14FF0FF3070BD204670BDE5
:1052A00093BEFFFF10B5203AC0F00B80B1E8185054
:1052B000203AA0E81850B1E81850A0E81850BFF400
:1052C000F5AF5FEA027C24BFB1E81850A0E818509F
:1052D00044BF18C918C0BDE810405FEA827C24BFF3
:1052E00051F8043B40F8043B08BF7047D20728BF81
:1052F00031F8023B48BF11F8012B28BF20F8023BD0
:1053000048BF00F8012B704701694A1C0261087808
:10531000704700B58FB0CDE90131002105910549F5
:105320007944CDE903101146684600F02EF80FB01D
:1053300000BD0000E5FFFFFF007B00F0800070472C
:10534000754600F03FF8AE4605006946534620F02A
:105350000700854618B020B5FEF708FABDE82040E2
:105360004FF000064FF000074FF000084FF0000B21
:1053700021F00701AC46ACE8C009ACE8C009ACE8D4
:10538000C009ACE8C0098D4670472DE9F0410646DA
:105390000024D6E90170F5688046304603E04146B6
:1053A000B847641C3046A8470028F8D12046BDE81D
:1053B000F08110B50446AFF300802046BDE81040F0
:1053C000FAF7FDBE004870475C1D0020EC53000852
:1053D00000000020840000006C01000870540008E8
:1053E000840000203C230000880100080000000029
:1053F00000000000000000000000000000000000AD
:105400000000000000000000000000000300000099
:10541000000000000000000000000000000000008C
:10542000000000000000010203040102030406075B
:10543000080902040608000000A24A040000000057
:105440000000000001020304060708090000000034
:10545000000000000000000000000000000000004C
:10546000000000000000000000010000000000003B
:0400000508000131BD
:00000001FF
