:020000040800F2
:10000000C023002061370008CB010008CD010008A3
:10001000D1010008D5010008D90100080000000046
:10002000000000000000000000000000DD010008EA
:10003000DF01000800000000E1010008E301000802
:100040007B3700087B3700087B3700087B370008C8
:100050007B3700087B3700087B3700087B370008B8
:100060007B3700087B3700087B3700087B370008A8
:100070007B3700087B3700087B3700087B37000898
:100080007B3700087B3700087B3700087B37000888
:100090007B3700087B3700087B3700087B37000878
:1000A0007B3700087B3700087B3700087B37000868
:1000B000CD0F00087B3700087B3700087B3700082E
:1000C0007B3700087B3700087B3700087B37000848
:1000D0007B370008F51100087B3700087B370008E4
:1000E0007B3700087B3700087B3700087B37000828
:1000F0007B3700087B3700087B3700087B37000818
:100100007B3700087B3700087B3700087B37000807
:100110007B3700087B3700087B3700087B370008F7
:100120007B3700087B3700087B3700087B370008E7
:1001300000F002F800F03AF80AA090E8000C8244BF
:100140008344AAF10107DA4501D100F02FF8AFF29C
:10015000090EBAE80F0013F0010F18BFFB1A43F0A5
:100160000103184784520000A4520000103A24BF33
:1001700078C878C1FAD8520724BF30C830C144BF0C
:1001800004680C607047000000230024002500264E
:10019000103A28BF78C1FBD8520728BF30C148BFEA
:1001A0000B6070471FB51FBD10B510BD05F0D6F828
:1001B0001146FFF7F7FF00F0A6FE05F008F903B4BB
:1001C000FFF7F2FF03BC00F0B1FF704700BFFEE78E
:1001D00000BFFEE700BFFEE700BFFEE770477047C5
:1001E0007047704708B52020ADF8000001208DF859
:1001F000020010208DF803006946FA4801F0E8FB80
:100200002021F84801F093FC08BD00B587B001211A
:1002100041F2050001F0B8FEE020ADF8180003201F
:100220008DF81A0018208DF81B0006A9EE4801F081
:10023000CFFBE021EC4801F078FC1020ADF818006D
:1002400003208DF81A0010208DF81B0006A9E6483F
:1002500001F0BEFB1021E44801F067FC0020ADF87E
:1002600004004FF48270ADF806000020ADF80800DD
:10027000ADF80A00ADF80C004FF40070ADF80E00B8
:100280000020ADF81000ADF812000720ADF8140002
:1002900001A9D64801F002FF0121D44801F0A3FFD3
:1002A00007B000BD10B504462146D04801F0CCFF90
:1002B00000BF0221CD4802F01AF80028F9D010BD85
:1002C00070B504462546E11704EB1161C1F3072020
:1002D000FFF7E8FFE0B2FFF7E5FF70BD70B5054638
:1002E0000C461021C04801F022FC2846FFF7E8FF29
:1002F0000520FFF7D7FF2046FFF7D4FF1021BA48AB
:1003000001F013FC70BD70B505460C461021B648CF
:1003100001F00DFC2846FFF7D3FF0620FFF7C2FFD0
:100320002046FFF7CDFF1021AF4801F0FEFB70BD66
:100330002DE9F04107460C4615461021AA4801F068
:10034000F6FB3846FFF7BCFF0420FFF7ABFF0026A3
:1003500005E014F8010BFFF7A5FF701C86B2AE4252
:10036000F7DB1021A04801F0E0FBBDE8F08170B59B
:1003700004460D46164610219B4801F0D8FB28463E
:10038000FFF79EFF082101EB4411C9B241F00500BF
:10039000FFF788FF3046FFF785FF1021924801F0F4
:1003A000C4FB70BD70B504460D46164610218E483C
:1003B00001F0BDFB2846FFF783FF082101EB441144
:1003C000C9B241F00600FFF76DFF3046FFF778FF36
:1003D0001021854801F0A9FB70BD70B505460E4699
:1003E00014461021804801F0A2FB3046FFF768FF59
:1003F000082101EB4511C9B241F00700FFF752FF98
:1004000014F8010BFFF74EFF14F8010BFFF74AFF3A
:1004100014F8010BFFF746FF14F8010BFFF742FF3A
:100420001021714801F081FB70BD70B504461021A8
:100430006D4801F07CFB2046FFF742FF0120FFF7EB
:1004400031FF6A4801F002FFC5B20020FFF72AFF22
:10045000664801F0FBFEC5B21021634801F065FB60
:10046000284670BD70B504460D4610215E4801F067
:100470005EFB2846FFF724FF082101EB4411C9B2B7
:1004800041F00100FFF70EFF584801F0DFFEC6B251
:100490000020FFF707FF554801F0D8FEC6B2102133
:1004A000514801F042FB304670BD70B505460E461E
:1004B00010214D4801F03BFB3046FFF701FF0821BA
:1004C00001EB4511C9B241F00200FFF7EBFE4748CE
:1004D00001F0BCFE04460020FFF7E4FE434801F0B3
:1004E000B5FE04460020FFF7DDFE4FF6FF7000EA80
:1004F00004243E4801F0AAFE204484B210213A4868
:1005000001F013FB204670BD2DE9F04780460D46F3
:1005100026214046FFF7C9FF064616B90020BDE870
:10052000F08740F2B450864200DD0646282140465E
:10053000FFF7BBFF0746B946C7F30A0710212A4851
:1005400001F0F5FA3846FFF7BBFE182101EB481120
:10055000C8B2FFF7A7FE254801F078FE00F0FF0AB9
:10056000B819B0F5006F11DA00240CE00020FFF795
:1005700099FE1E4801F06AFE00F0FF0A85F800A00F
:100580006D1C601C84B2B442F0DB40E0C7F5006033
:1005900087B200240CE00020FFF784FE134801F02E
:1005A00055FE00F0FF0A85F800A06D1C601C84B2A7
:1005B000BC42F0DB10210C4801F0B7FA10210A48C8
:1005C00001F0B5FA0020FFF77BFE182101EB48117E
:1005D000C8B2FFF767FE054801F038FE00F0FF0AD9
:1005E00013E000000010014000080140003001400D
:1005F0000020FFF757FEF74801F028FE00F0FF0A41
:1006000085F800A06D1C601C84B2B442F0DB1021A0
:10061000F14801F08AFA09EB06001FFA80F94A4610
:1006200028214046FFF7BEFE402201214046FFF749
:100630009EFE304673E72DE9F04707460D4690468B
:1006400000213846FFF70EFF00F00F0022280ED0E1
:10065000E24A0C213846FFF7C0FEE14841780078B5
:1006600001EB002082B210213846FFF79BFE2421C7
:100670003846FFF71AFF0646B146C6F30A061021B0
:10068000D54801F054FA3046FFF71AFE102101EB6D
:100690004711C9B241F00400FFF704FE06EB080061
:1006A000B0F5006F0ADA002405E015F8010BFFF73A
:1006B000F9FD601C84B24445F7DB28E0C6F5006014
:1006C00086B2002405E015F8010BFFF7EBFD601C76
:1006D00084B2B442F7DB1021BF4801F026FA1021A2
:1006E000BD4801F024FA0020FFF7EAFD102101EBDC
:1006F0004711C9B241F00400FFF7D4FD05E015F839
:10070000010BFFF7CFFD601C84B24445F7DB1021DD
:10071000B14801F00AFA09EB08001FFA80F94A46CD
:1007200024213846FFF73EFE202201213846FFF7FC
:100730001EFEBDE8F08710B52021AA4801F0F7F9A8
:10074000322000F05EFC2021A64801F0EEF9C8201E
:1007500000F057FC10BD10B5002480210020FFF7E9
:10076000BDFD0A2000F04DFC04229F490120FFF747
:10077000DFFD04229D490520FFF7DAFD06229C4992
:100780000920FFF7D5FD04229A490F20FFF7D0FD7D
:1007900000BF0BE002221E212046FFF7E8FD0222E7
:1007A0001F212046FFF7E3FD601CC4B2082CF1DBDB
:1007B0004FF4FA611920FFF7A6FD08211B20FFF76F
:1007C0008DFD10BD38B58B480078401CC0B28DF847
:1007D000000088484078401CC0B28DF80100854870
:1007E0008078401CC0B28DF802008248C078401C5E
:1007F000C0B28DF803006A460C210020FFF7EDFD22
:10080000012200210846FFF7B2FD01221146002017
:10081000FFF7ADFD052000F0F4FB03210020FFF7FA
:1008200021FE132806D0102201210020FFF79FFD92
:10083000002038BD042201210020FFF798FD00BFF1
:10084000002402210020FFF70DFE044624B12246B9
:1008500002210020FFF78BFD052000F0D2FB04F001
:100860000800082801D10020E3E706210020FFF757
:10087000F9FDFF2806D0102201210020FFF777FDA7
:10088000FF20D6E7DCE710B5044640F2B45212214F
:100890000020FFF787FD082C26D2DFE804F0041EB5
:1008A0001F202122232454484178007801EB0020A6
:1008B00082B204210020FFF775FD5048417800788E
:1008C00001EB002082B210210020FFF76BFD4C4AA3
:1008D0000C210020FFF781FD07E006E005E004E0C1
:1008E00003E002E001E000E000BF00BF10BD10B572
:1008F0000446012200212046FFF739FD012211465E
:100900002046FFF734FD052000F07BFB0321204645
:10091000FFF7A8FD132806D0102201212046FFF77B
:1009200026FD002010BD042201212046FFF71FFDF7
:10093000FF20F7E710B50446012200212046FFF70B
:1009400016FD012211462046FFF711FD052000F09B
:1009500058FB03212046FFF785FD132806D01022FF
:1009600001212046FFF703FD002010BD02220121D6
:100970002046FFF7FCFC052000F043FB0321204646
:10098000FFF770FD142806D0102201212046FFF742
:10099000EEFC0020E9E7FF20E7E710B5044602225D
:1009A00000212046FFF7E3FC012211462046FFF715
:1009B000DEFC052000F025FB03212046FFF752FD59
:1009C00022281FD0102201212046FFF7D0FC002052
:1009D00010BD000000300140000801401A00002056
:1009E0001E00002000100140000000200400002034
:1009F000080000200E000020120000201800002037
:100A000014000020FF2010BD70B500BF1720FFF7B5
:100A10000CFD054605F0010000283DD00221002014
:100A2000FFF720FD0446224602210020FFF79FFC2D
:100A300004F0010028B11C48007840F002001A4977
:100A4000087004F0020050B1102201210020FFF7CD
:100A50008EFC0020FFF717FF00201349087004F0F8
:100A6000100028B11148007840F002000F490870CA
:100A700004F0040028B10D48007840F001000B4953
:100A8000087004F0080038B1102201210020FFF79F
:100A90006EFC0020044908701720FFF7C6FC00F028
:100AA000010000B1B2E770BD21000020220000204B
:100AB00008B5012140F2FD1001F066FA4FF4807094
:100AC000ADF8000010208DF8030003208DF802001F
:100AD00069465B4800F07CFF0F20ADF8000048201D
:100AE0008DF8030003208DF802006946544800F099
:100AF0006FFF40F29F30ADF8000048208DF80300F2
:100B000003208DF8020069464E4800F061FF4FF463
:100B10007050ADF8000010208DF8030003208DF810
:100B200002006946474800F053FF4FF4DE50ADF82D
:100B3000000010208DF8030003208DF802006946A4
:100B4000414800F045FF4EF20100ADF8000048209A
:100B50008DF8030003208DF8020069463A4800F042
:100B600037FF4FF6FF40ADF8000010208DF803006E
:100B700003208DF802006946344800F029FF7F20E9
:100B8000ADF8000048208DF8030003208DF8020026
:100B900069462F4800F01CFF4FF47C40ADF8000080
:100BA00010208DF8030003208DF8020069462848C4
:100BB00000F00EFF4FF6FF70ADF8000048208DF8F2
:100BC000030003208DF802006946224800F000FF70
:100BD00047F6CC70ADF8000010208DF8030003201C
:100BE0008DF8020069461C4800F0F2FE4FF4004008
:100BF000ADF8000048208DF8030003208DF80200B6
:100C00006946154800F0E4FE0121144800F0B1FFE8
:100C100008BD70B505460C4645F2555001F026F862
:100C2000284601F026F8204601F026F801F027F8C2
:100C300001F02AF870BD10B501F021F810BD0000D8
:100C400000080140000C0140001001400014014068
:100C500000180140001C014000200140000230004B
:100C600010B5FFF778FDFFF7ADFD0020FFF70BFE95
:100C700010BDC020E7490870A82048700120887086
:100C8000C870FF20E4490870487088700020C87060
:100C90000C20E249087029204870AB2088707C2025
:100CA000C8700020087101204871C020DC4908701C
:100CB000A820487001208870C720C8701320D94927
:100CC000087088204870C020D7490870A820487054
:100CD00001208870BE20C8701720D4490870702089
:100CE00048700120D2490870704710B5D14800788B
:100CF000F8B9CF48007860B90020FFF71BFEFF2845
:100D000003D10120CB49087020E00020C9490870B8
:100D10001CE0C748007801280CD10020FFF7E7FD50
:100D2000FF2803D10120C34908700FE00020C1490A
:100D300008700BE00020FFF730FEFF2803D10320EE
:100D4000BC49087002E00020BA49087010BD70B5B7
:100D50000446B9492046FFF7D7FB05462A46B6495F
:100D6000B64804F051FA2A46B4492046FFF763FC1E
:100D700070BD10B5B248008800F4004000283ED095
:100D8000B0A004F035FA00240DE0B148015DB1488F
:100D900002F02EFB00BF4021AE4802F097FB012875
:100DA000F9D1601C84B2032CEFDBA94800785228EB
:100DB0000DD1A7484078532809D1A54880785428F8
:100DC00005D10120A4498874A4A004F011FAA04818
:100DD00000784E280DD19E4840784D2809D19C4876
:100DE0008078492805D10120A1498874A1A004F088
:100DF000FFF9A5A004F0FCF900209149088010BD7E
:100E000070470EB50121084601F0CBF80920ADF876
:100E1000040041F61F40ADF800000020ADF80600C8
:100E2000ADF8020069464FF0804001F06BFB0122F3
:100E30001146900701F0DDFE0121880701F0BEFE9A
:100E40000EBD08B500214FF0006000F04CFA4FF4E1
:100E5000C06000F011FA1C208DF8000000208DF811
:100E600001008DF8020001208DF80300684600F0B3
:100E700008FA08BD10B500F019FF4FF4803000F0FB
:100E800035FF00F072FF0446012C2FD1102000F036
:100E900075FA022000F05EFA002000F0ACFF00209E
:100EA00000F0BBFFA00200F0AFFF4FF4E011200400
:100EB00000F084FF012000F08DFF00BF392000F01A
:100EC00038FF0028FAD0022000F087FF00BF00F0B2
:100ED0008DFF0828FBD1012001F08EF80121084682
:100EE00001F05FF801213D2001F04EF810BD10B572
:100EF000FFF7C0FFFFF7A5FFFFF787F9FFF781FFB7
:100F0000FFF770F910BDFFF7F2FF4FF4165000F035
:100F10001FF9FFF7CDFD04F0BAF802F0BBFC40F278
:100F200071210420FFF775FE01205849887458A0EC
:100F300004F05EF949E002F03FFC03F052FC5A4A2B
:100F40005A495B4802F007FF5A495B4803F06CFBC3
:100F5000FFF70FFF5948007801282CD1584A59490A
:100F6000594802F0BFFC494A5849594802F0AEFDC1
:100F7000584A5949594802F044FF594A59495A4870
:100F800003F0C4FA534A5949594802F0BBFF544A86
:100F90005849594803F050F8584A5949594803F0FC
:100FA000EEF8594A59495A4803F082F9594A5A49C0
:100FB0005A4803F014FA284A4749484802F021FFEA
:100FC0002B4A4849484803F0A1FAB4E710B501217B
:100FD000880702F0BCF8012812D10121800702F035
:100FE000C7F84F480068401C4D4908604D480068EC
:100FF000401C4C4908604C480068401C4A49086045
:1010000010BD0021464A116000BF45490968814270
:10101000FBD37047000000200400002008000020DF
:101020000E000020120000201400002018000020F4
:1010300020000020210000208400002084080020DF
:10104000300000200D0A2073656E643A20200000F5
:1010500084180020003801409C1A002020202D2DEB
:101060002D616E642072756E205253542E00000064
:101070005C1B002020202D2D2D616E642072756E6A
:10108000204E4D492E0000000D0A00005C1A002081
:101090000D0A2073746172742076657273696F6EC5
:1010A0002033210D0A0000007C1A00206600002079
:1010B0006C1900206E000020EC1900207800002040
:1010C0003C1A0020640000204C190020650000201C
:1010D0005C190020BC1A0020670000207C19002049
:1010E000DC1A00206D000020DC19002068000020C0
:1010F0008C190020690000209C190020FC1A002097
:101100006A000020AC1900201C1B00206B0000208E
:10111000BC1900203C1B00206C000020CC190020D2
:1011200024000020600000208000002000BF7047E5
:1011300070B504460D46A1B2494802F059F900BF06
:101140008021474802F0C2F90028F9D0204670BD3E
:1011500010B586B00446012144F2040000F014FFEB
:101160004FF40070ADF8140003208DF8160018201D
:101170008DF8170005A93B4800F02AFC4FF4806069
:10118000ADF8140004208DF8170005A9354800F0CB
:101190001FFC25208DF8000003208DF801008DF83C
:1011A000020001208DF80300684600F06AF80194FF
:1011B0000020ADF80800ADF80A00ADF80C00ADF85D
:1011C00010000C20ADF80E0001A9254802F017F818
:1011D000012240F22551224802F0A9F8012240F2F2
:1011E00024411F4802F0A3F801211D4802F093F8A2
:1011F00006B010BD10B500BF40F22551184802F0EE
:101200007BF988B11648001D0088C1B216480288D3
:101210000088401C144B18801448815440F225511A
:101220000F4802F060F919E040F224410C4802F046
:1012300063F998B10E48008840F400400C490880DA
:10124000094800880B4908800020074908800448A5
:101250000088C4B20248001D0088C4B210BD00005E
:1012600000380140000801403200002084180020AE
:10127000300000203400002031490143314A116020
:10128000704770B5002100230F22C47804B32D4CA1
:10129000246804F4E064C4F5E064210AC1F10403A5
:1012A000CA40447804FA03F18478144021430901C8
:1012B000254C0678A155047804F01F050124AC40A4
:1012C00005786D11AD0005F1E025C5F8004109E094
:1012D000047804F01F050124AC401C4D06787611FB
:1012E00045F8264070BD1A4A0A400243154B1B1FA1
:1012F0001A60704739B1134A121D12680243114B2C
:101300001B1D1A6006E00F4A121D126882430D4B26
:101310001B1D1A607047042808D14FF0E0210969AD
:1013200041F004014FF0E022116107E04FF0E021AD
:10133000096921F004014FF0E022116170470000BB
:101340000000FA050CED00E000E400E080E100E0C0
:1013500080FFFF1F01460020FE4A106800F03800A1
:10136000084310607047FB49096821F00801F94AF9
:10137000116011460968014311607047F549096819
:1013800021F01001F34A1160114609680143116010
:101390007047F148EF494860F04848607047EE48B0
:1013A000EC494860ED4848607047EA48006940F001
:1013B0008000E84908617047E648006940F0800015
:1013C000E449086170470420E249C96801F001015D
:1013D00009B101200EE0DF49C96801F0040109B13B
:1013E000022007E0DB49C96801F0100109B10320C0
:1013F00000E00420704700B502460423FFF7E3FF36
:10140000034603E0FFF7DFFF0346521E012B01D125
:10141000002AF7D102B90523184600BD30B50446AD
:1014200004254FF43020FFF7E6FF0546042D17D1C1
:10143000C848006940F00200C64908610846446196
:10144000006940F0400008614FF43020FFF7D3FFFF
:101450000546C048006941F6FD710840BD49086174
:10146000284630BD10B504244FF43020FFF7C3FFE9
:101470000446042C16D1B748006940F00400B54971
:1014800008610846006940F0400008614FF43020D0
:10149000FFF7B1FF0446AF48006941F6FB71084011
:1014A000AC490861204610BD00B502460423FFF791
:1014B0008AFF034603E0FFF786FF0346521E012B17
:1014C00001D1002AF7D102B90523184600BD10B595
:1014D00004244FF43020FFF7E7FF0446042C16D114
:1014E0009C48006940F004009A4908610846006978
:1014F00040F0400008614FF43020FFF7D5FF04466C
:101500009448006941F6FB71084092490861204601
:1015100010BD00208F49C96901F0020109B1012005
:1015200000E00020704730B5A5250424FFF7F1FF47
:1015300000B100254FF43020FFF75DFF0446042C76
:101540003AD18548834988608448886008460069A4
:1015500040F0200008610846006940F04000086142
:101560004FF43020FFF747FF0446042C1BD1794885
:10157000006941F6DF710840764908610846006954
:1015800040F01000086176480580E002FFF733FF65
:101590000446052C10D06F48006941F6EF710840F1
:1015A0006C49086108E0052C06D06A48006941F6DC
:1015B000EF71084067490861204630BD78B506469E
:1015C0000C46042500200090E802FFF714FF0546B2
:1015D000042D24D15F48006940F001005D49086195
:1015E0003480E802FFF707FF0546042D10D1B01C38
:1015F0000090200C00990880E802FFF7FCFE0546E9
:101600005448006941F6FE7108405249086106E0FD
:101610005048006941F6FE7108404E49086128466D
:1016200078BD70B504460D460426F002FFF7E3FED0
:101630000646042E11D14748006940F00100454993
:1016400008612580F002FFF7D6FE06464148006992
:1016500041F6FE7108403F490861304670BD70B5E3
:1016600005460E460424E002FFF7C5FE0446042C9E
:1016700017D139483749886038488860084600697A
:1016800040F0100008612E80E002FFF7B4FE04462F
:10169000052C06D02F48006941F6EF7108402D490E
:1016A0000861204670BD2DE9F04304464FF6FF76F1
:1016B0003746B046B1460425E443E6B2C4F30727F3
:1016C000C4F307484FEA1469E802FFF794FE0546A1
:1016D000042D49D120481F49886020488860084669
:1016E000006940F010000861FF2E06D01C48083049
:1016F0000680E802FFF77FFE0546042D08D1FF2F84
:1017000006D017480A300780E802FFF774FE054646
:10171000042D0AD1B8F1FF0F07D011480C30A0F802
:101720000080E802FFF767FE0546042D0AD1B9F1F3
:10173000FF0F07D00A480E30A0F80090E802FFF72C
:101740005AFE0546052D0FD00248006941F6EF719B
:10175000084007E00020024023016745AB89EFCD38
:1017600000F8FF1F664908612846BDE8F08330B5E0
:10177000054604244FF43020FFF73DFE0446042CB8
:1017800041D160485E4988605F48886008460069CA
:1017900040F0200008610846006940F04000086100
:1017A0004FF43020FFF727FE0446042C22D1544882
:1017B000006941F6DF710840514908610846006937
:1017C00040F0100008611DB100205049088002E07F
:1017D000A5204E4908804FF43020FFF70CFE044648
:1017E000052C10D04648006941F6EF710840444985
:1017F000086108E0052C06D04148006941F6DF7118
:1018000008403F490861204630BDF0B505460E4608
:10181000174604243B483A4988603B488860E00208
:10182000FFF7E9FD0446042C19D13548006940F062
:1018300010003349086147F0F8003043284333492A
:10184000891C0880E002FFF7D6FD0446052C06D06F
:101850002B48006941F6EF7108402949086120468C
:10186000F0BD2748C069800870472548006A704766
:1018700000202349096801F0200109B1012000E09E
:101880000020704729B11E4A126902431C4B1A619D
:1018900004E01B4A12698243194B1A6170470146E2
:1018A0000020012908D1164AD26902F001020AB1CA
:1018B000012008E0002006E0114AD2680A400AB17F
:1018C000012000E0002070470D49C86070470420E7
:1018D0000B49C96801F0010109B101200EE0084976
:1018E000C96801F0040109B1022007E00449C96890
:1018F00001F0100109B1032000E00420704700004E
:101900000020024023016745AB89EFCD00F8FF1F9F
:1019100010B50446CC48844208D10121042000F0CF
:101920004DFB0021042000F049FB46E0C7488442FB
:1019300008D10121082000F041FB0021082000F01F
:101940003DFB3AE0C248844208D10121102000F05A
:1019500035FB0021102000F031FB2EE0BD48844211
:1019600008D10121202000F029FB0021202000F0D7
:1019700025FB22E0B848844208D10121402000F034
:101980001DFB0021402000F019FB16E0B348844203
:1019900008D10121802000F011FB0021802000F0FF
:1019A0000DFB0AE0AE48844207D10121801500F00A
:1019B00005FB0021A01500F001FB10BD10B50121B1
:1019C000084600F0FBFA0021012000F0F7FA10BDF4
:1019D0002DE9F041024600250026002000230024C6
:1019E000002791F803C00CF00F0591F803C00CF02C
:1019F000100CBCF1000F03D091F802C04CEA0505B1
:101A000091F800C0BCF1000F31D0146800202BE029
:101A10004FF0010C0CFA00F3B1F800C00CEA030619
:101A20009E4220D183004FF00F0C0CFA03F7BC4309
:101A300005FA03FC4CEA040491F803C0BCF1280F3A
:101A400006D14FF0010C0CFA00FCC2F814C00AE0F9
:101A500091F803C0BCF1480F05D14FF0010C0CFA0E
:101A600000FCC2F810C0401C0828D1D31460B1F8A3
:101A700000C0BCF1FF0F34DD546800202EE000F1FF
:101A8000080C4FF0010808FA0CF3B1F800C00CEA9A
:101A900003069E4221D183004FF00F0C0CFA03F78E
:101AA000BC4305FA03FC4CEA040491F803C0BCF102
:101AB000280F05D100F1080C08FA0CF8C2F81480C0
:101AC00091F803C0BCF1480F07D100F1080C4FF0AA
:101AD000010808FA0CF8C2F81080401C0828CED380
:101AE0005460BDE8F0814FF6FF71018002218170E2
:101AF0000421C17070470246002093680B400BB16F
:101B0000012000E0002070470146886880B27047DD
:101B100002460020D3680B400BB1012000E00020FA
:101B200070470146C86880B27047016170474161E3
:101B300070470AB1016100E041617047C1607047C0
:101B40004FF480320A4382618161826182698269D5
:101B5000704702460020434B18684FF680731840C8
:101B600040EA021008433F4B186070473E49C86185
:101B70007047F0B50A46002300240021002500F03C
:101B80000046B6F1004F02D1364EF16901E0354E04
:101B90007168C0F3034583B200F44016B6F5401FE8
:101BA00008D121F070612F4E766826F070662D4FB7
:101BB0007E6012E000F48016B6F5801F06D1032681
:101BC00006FA05F4A14341F0706106E0460D3601C6
:101BD00003FA06F6B14341F0706122B1460D3601B9
:101BE00003FA06F6314300F00046B6F1004F02D189
:101BF0001C4EF16101E01B4E7160F0BD30B500225A
:101C00008B071C0F0F2303FA04F2164B08338C10BA
:101C100053F824309343134C08348D1044F8253086
:101C200023468C1053F824308C07240F00FA04F458
:101C300023430C4C08348D1044F8253030BD0A493C
:101C4000DC3108607047000000080140000C0140D2
:101C5000001001400014014000180140001C014028
:101C60000020014000000140000020420E490860B1
:101C700070470D49486070470B49886070474AF6C5
:101C8000AA200949086070474CF6CC400649086014
:101C9000704701460020044AD2680A400AB1012078
:101CA00000E000207047000000300040DF4800687E
:101CB00040F00100DD49086008464068DC49084002
:101CC000DA49486008460068DA490840D7490860A0
:101CD0000846006820F4802008600846406820F428
:101CE000FE0048604FF41F0088607047CF490968C4
:101CF00021F48031CD4A11601146096821F4802118
:101D00001160B0F5803F03D0B0F5802F0ED106E012
:101D1000C649096841F48031C44A116007E0C349EB
:101D2000096841F4A021C14A116000E000BF00BF72
:101D3000704710B501460022002300204A11012AF5
:101D400002D1BA4C236806E0022A02D1B74C236ABA
:101D500001E0B64C636A01F01F02012494401C406C
:101D60000CB1012000E0002010BD38B5002000902B
:101D70000024002500BF3120FFF7DBFF0546009857
:101D8000401C00900098B0F5A06F01D0002DF2D05B
:101D90003120FFF7CEFF08B1012400E000242046E7
:101DA00038BD01460020A14A106820F0F80040EA42
:101DB000C10010607047A0490860704702460020CB
:101DC0009A4B586820F47C1042EA01031843974B61
:101DD0005860704798490866704701460020934A4A
:101DE000506820F003000843506070478F484068F7
:101DF00000F00C007047014600208C4A506820F02B
:101E0000F00008435060704701460020874A506840
:101E100020F4E06008435060704701460020834A88
:101E2000506820F4605040EAC1005060704729B10A
:101E30007E4A527A02437D4B5A7204E07B4A527AC0
:101E400082437A4B5A7270477B49D8310860704799
:101E500001460020754A506820F440400843506015
:101E600070470021714A20321170704A82F82010A8
:101E7000012802D004280AD104E001216B4A203253
:101E8000117005E00521694A2032117000E000BFA1
:101E900000BF70476949086070476449096A014397
:101EA000624A11627047654944390860704730B52D
:101EB00000210022002400235C4D6D6805F00C0118
:101EC00021B1042905D0082923D105E05C4D056026
:101ED00022E05B4D05601FE0544D6D6805F4701203
:101EE000524D6D6805F48034022505EB92421CB911
:101EF000544D554305600BE04C4D6D6805F40035BD
:101F00001DB1504D5543056002E04D4D55430560F0
:101F100002E04B4D056000BF00BF444D6D6805F009
:101F2000F0010909484D6B5C0568DD4045603F4D97
:101F30006D6805F4E061090A434D6B5C4568DD405E
:101F400085603A4D6D6805F46051C90A3E4D6B5C81
:101F50004568DD40C560354D6D6805F44041890B2D
:101F60003A4D6B5CC568B5FBF3F5056130BD29B131
:101F70002E4A526902432D4B5A6104E02B4A5269A2
:101F800082432A4B5A61704729B1284A9269024319
:101F9000264B9A6104E0254A92698243234B9A6159
:101FA000704729B1214AD2690243204BDA6104E02B
:101FB0001E4AD26982431D4BDA61704729B11B4A20
:101FC000D2680243194BDA6004E0184AD2688243AF
:101FD000164BDA60704729B1144A12690243134B59
:101FE0001A6104E0114A12698243104B1A6170476A
:101FF00012494039086070470F49C86470470B495F
:10200000C87170470948406A40F0807007494862CB
:10201000704701460020054A92680A400AB1012033
:1020200000E00020704701498872704700100240AC
:102030000000FFF8FFFFF6FE00004242800442422B
:1020400000127A0000093D00360000204600002002
:1020500010B50446BE48844208D101218014FFF720
:10206000ADFF0021A014FFF7A9FF16E0B948844294
:1020700008D101210014FFF7AEFF00212014FFF763
:10208000AAFF0AE0B448844207D10121C013FFF738
:10209000A2FF0021E013FFF79EFF10BD10B5002244
:1020A000028802F441520B884C8823438C882343D6
:1020B000CC8823430C8923434C8923438C892343B5
:1020C000CC8923431A430280838B4FF2FF74234051
:1020D00083830B8A038210BD2DE9F04F85B005463E
:1020E0000C464FF0000902274FF000084FF0010B9B
:1020F0000026B246A88B4FF240010840A883022078
:102100002884B5F81C90A068022801D100BF38E0EF
:10211000A08810B94FF0010B01E04FF0020B8D4881
:10212000854200D100E000BF6846FFF7C0FEDDF841
:1021300000A0E088B0F5007F0AD14FEA1A2000EB3A
:1021400080004000A168B0FBF1F0401D86B20BE0BA
:102150004FEA4B10BAFBF0F000EB80004000A168A2
:10216000B0FBF1F0401D86B20A20B6FBF0F606F097
:102170000108A6EB0800C0F34F074FF6FF7000EA16
:102180000828022F01DBFF2F02DD02274FF0000895
:10219000E08840EA080038432884A088A1890843E1
:1021A000618808432188084340F4006040EA090937
:1021B000A5F81C9005B0BDE8F08F0021018041809A
:1021C0008180C180018141818181C181072101829A
:1021D00070470021018041808180C180022181609F
:1021E00000218181704721B1028842F040020280C3
:1021F00004E002884FF6BF731A400280704721B195
:10220000828B42F48062828304E0828B4FF6FF333C
:102210001A408283704730B5002400230C11012539
:10222000A540ABB21AB185881D43858002E0858840
:102230009D43858030BD1AB183880B43838002E0C3
:1022400083888B43838070478181704701468889EA
:1022500070474FF6FF62914204D0028842F48072C8
:10226000028004E002884FF6FF631A400280704744
:1022700021B1828842F00402828004E082884FF615
:10228000FB731A408280704702884FF2FF731A4036
:10229000028002880A4302807047018841F480511D
:1022A0000180704721B1028842F40052028004E0AC
:1022B00002884DF6FF731A400280704702460020E4
:1022C000012901D0108B00E0908A70470146088AEE
:1022D0007047B1F5804F04D1028842F480420280F9
:1022E00004E002884BF6FF731A40028070470246F2
:1022F000002013890B400BB1012000E00020704743
:10230000CA4302817047F0B5024600200024002332
:10231000002501F00F070126BE40B4B20B110126C3
:102320009E40B3B2968806EA03051689264016B188
:102330000DB1012000E00020F0BD10B5002201F039
:102340000F040123A3409AB2D343038110BD0000C0
:102350000030014000380040003C004010B5044609
:10236000FE48844208D10121C014FFF727FE002156
:10237000E014FFF723FEC4E0B4F1804F08D101213F
:102380000846FFF728FE00210120FFF724FEB8E0F1
:10239000F348844208D101210220FFF71CFE0021EE
:1023A0000220FFF718FEACE0EE48844208D101217C
:1023B0000420FFF710FE00210420FFF70CFEA0E030
:1023C000E948844208D101210820FFF704FE0021DA
:1023D0000820FFF700FE94E0E448844208D1012180
:1023E0001020FFF7F8FD00211020FFF7F4FD88E032
:1023F000DF48844208D101212020FFF7ECFD0021B5
:102400002020FFF7E8FD7CE0DA48844208D1012172
:102410004014FFF7D3FD00216014FFF7CFFD70E0FB
:10242000D548844209D10121C804FFF7C7FD002126
:102430004FF40020FFF7C2FD63E0D048844209D189
:1024400001210805FFF7BAFD00214FF48010FFF7C6
:10245000B5FD56E0CA48844209D101214805FFF77D
:10246000ADFD00214FF40010FFF7A8FD49E0C5487D
:10247000844208D101214020FFF7ADFD002140201A
:10248000FFF7A9FD3DE0C048844208D1012180202A
:10249000FFF7A1FD00218020FFF79DFD31E0BB4843
:1024A000844208D101218015FFF795FD0021A01578
:1024B000FFF791FD25E0B648844209D101210804C7
:1024C000FFF77CFD00214FF48030FFF777FD18E027
:1024D000B048844209D101214804FFF76FFD002173
:1024E0004FF40030FFF76AFD0BE0AB48844208D19F
:1024F00001218804FFF762FD00214FF48020FFF7DF
:102500005DFD10BD00220288944B98420ED0994B7D
:1025100098420BD0B0F1804F08D0914B984205D033
:10252000904B984202D0904B984204D14FF68F7353
:102530001A404B881A438D4B984207D08C4B9842D7
:1025400004D04FF6FF431A40CB881A4302808B8891
:1025500083850B880385814B98420BD0854B98422D
:1025600008D08B4B984205D08A4B984202D08A4BB8
:10257000984201D10B7A038601238382704770B59C
:10258000002400220023058C4FF6FE76354005849A
:10259000028C8388048B4FF68F752C40B51E2C401F
:1025A0000D882C43751E2A400D892A434D882A43E5
:1025B0006A4DA8420BD06F4DA84208D0744DA84276
:1025C00005D0744DA84202D0734DA84213D14FF6E6
:1025D000F7752A404D892A434FF6FB752A408D88AE
:1025E0002A434FF6FF652B404FF6FF552B408D8950
:1025F0002B43CD892B4383800483CD888586028439
:1026000070BD70B5002400220023058C4FF6EF76D4
:1026100035400584028C8388048B48F6FF752C4076
:102620004FF6FF452C400D884FF6FF7606EA05254C
:102630002C434FF6DF752A400D8906EA05152A431B
:102640004D8806EA05152A43444DA84202D0494D5B
:10265000A8421DD14FF67F752A404D894FF6FF766F
:1026600006EA05152A434FF6BF752A408D8806EA0B
:1026700005152A434FF6FF352B404FF2FF752B40CF
:102680008D8906EA85052B43CD8906EA85052B430E
:1026900083800483CD880587028470BD70B50024D3
:1026A00000220023058C4FF6FF6635400584028C1E
:1026B0008388848B4FF68F752C404FF6FC752C4029
:1026C0000D882C434FF6FF552A400D894FF6FF76B3
:1026D00006EA05252A434D8806EA05252A431F4DAB
:1026E000A84202D0234DA8421DD14FF2FF752A40C7
:1026F0004D894FF6FF7606EA05252A434FF6FF354A
:102700002A408D8806EA05252A434EF6FF752B40A0
:102710004DF6FF752B408D8906EA05152B43CD89B3
:1027200006EA05152B4383808483CD888587028440
:1027300070BD70B5002200230024058C4EF6FF7694
:1027400035400584038C8488828B48F6FF752A40C7
:102750004FF6FF452A400D8820E00000002C014084
:102760000004004000080040000C00400010004041
:102770000014004000340140004C01400050014072
:102780000054014000180040001C004000200040A0
:102790000040014000440140004801404FF6FF76F0
:1027A00006EA05252A434DF6FF752B400D8906EAFA
:1027B00005352B434D8806EA05352B43FA4DA842D3
:1027C00002D0FA4DA84208D14BF6FF752C408D89F6
:1027D0004FF6FF7606EA85152C4384808283CD88E8
:1027E000A0F84050038470BD828B4FF2FF331A4033
:1027F0008283828B4FF6FF7303EA01231A4382839D
:102800007047F0B50C461546002200210026078CC3
:102810004EF6FF7C07EA0C070784828B018C4FF68B
:10282000FF7707EA043640F6FF473A404FF6FF7756
:1028300007EA05273A434FF6FF7707EA03373A439B
:10284000D94FB8420ED0D94FB8420BD0B0F1804F1B
:1028500008D0D74FB84205D0D64FB84202D0D64F95
:10286000B84206D14DF6FF77394046F480573943D8
:1028700005E047F6FF57394044F4805739438283D7
:102880000184F0BD828B4FF6F3731A408283828BF2
:102890000A4382837047F0B50C461546002200219A
:1028A0000026078C4FF6FF6C07EA0C070784828B23
:1028B000018C4FF6FF7707EA04264FF60C773A4073
:1028C0004FF6FF7707EA03172F433A43B64FB84254
:1028D0000ED0B64FB8420BD0B0F1804F08D0B44FF5
:1028E000B84205D0B34FB84202D0B34FB84206D178
:1028F0004FF6FF57394046F48077394305E04FF2F1
:10290000FF57394044F48077394382830184F0BD16
:10291000028B4FF2FF331A400283028B4FF6FF7394
:1029200003EA01231A4302837047F0B50C461546AB
:10293000002200210026078C4FF6EF7C07EA0C07E7
:102940000784028B018C4FF6FF7707EA041640F6E6
:10295000FF473A404FF6FF7707EA03373A434FF60F
:10296000FF7707EA05273A438F4FB8420ED08F4FC3
:10297000B8420BD0B0F1804F08D08D4FB84205D08F
:102980008C4FB84202D08C4FB84206D14FF6DF7759
:10299000394046F01007394305E04FF65F7739407C
:1029A00044F01007394302830184F0BD028B4FF6D7
:1029B000F3731A400283028B0A4302837047F0B517
:1029C0000C46154600220021068C4FF6FE773E404D
:1029D0000684028B018C4FF60C7632407E1C06EA90
:1029E00003162E433243704EB0420ED06F4EB042AB
:1029F0000BD0B0F1804F08D06D4EB04205D06D4E77
:102A0000B04202D06C4EB04206D14FF6FD76314056
:102A100044F00106314305E04FF6F576314044F0CD
:102A20000106314302830184F0BD70B505460C46B2
:102A30005D4885420ED05D4885420BD0B5F1804F90
:102A400008D05B48854205D05A48854202D05A4892
:102A5000854200D100E000BF208850B92389A288B8
:102A600061882846FFF7ABFFE1882846FFF79EFF05
:102A700025E0208804280AD12389A2886188284675
:102A8000FFF753FFE1882846FFF742FF17E0208851
:102A900008280AD12389A28861882846FFF7FBFE0F
:102AA000E1882846FFF7EEFE09E02389A2886188C5
:102AB0002846FFF7A6FEE1882846FFF795FE70BD81
:102AC0002DE9F04105460C4600260127608808B92B
:102AD000022600E00026A088012801D1022700E09C
:102AE00001272088A0B92389A28861882846FFF79A
:102AF00066FFE1882846FFF759FF23893A463146A9
:102B00002846FFF712FFE1882846FFF701FF13E090
:102B10002389A28861882846FFF707FFE1882846B5
:102B2000FFF7F6FE23893A4631462846FFF747FF6E
:102B3000E1882846FFF73AFFBDE8F0810A884B8814
:102B40001A438B881A43CB881A430B891A434B8943
:102B50001A438B891A43A0F8442070474FF6FF713F
:102B6000818000210180C180418001727047002175
:102B7000018041808180C180018141818181C18149
:102B80007047002101804180012181800021C180A6
:102B9000018170470021018041808180C1800181D5
:102BA0004181818170470000002C014000340140C8
:102BB0000004004000080040000C004021B10288E1
:102BC00042F00102028004E002884FF6FE731A40D0
:102BD0000280704731B1B0F8442042F40042A0F8BE
:102BE000442005E0B0F84420C2F30E02A0F84420CF
:102BF00070471AB183890B43838102E083898B4339
:102C0000838170478182704741EA0203A0F848300F
:102C100070471AB183890B43838102E083898B4318
:102C20008381704701894FF6F87211400181704726
:102C30000A46002101894FF68F7319401143018123
:102C4000704730B504460D4629462046FFF7F0FF91
:102C5000208940F00700208130BD2DE9F041044675
:102C60000D4616461F46602D06D13B4601223146D1
:102C70002046FFF75AFE05E03B460122314620463A
:102C8000FFF79DFE29462046FFF7D2FF208940F03E
:102C900007002081BDE8F08130B50C460021018994
:102CA000C9B24FF6FF7505EA0325154325432943AD
:102CB000018130BD2DE9F04105460E461746984684
:102CC000002443463A4631462846FFF7E5FF2C8963
:102CD0004FF6F870044044F007044FF68F7004403C
:102CE00044F070042C81BDE8F081F0B504460D4637
:102CF00016461F463B46324629462046FFF7CCFF84
:102D0000208940F480402081F0BD01858282704797
:102D10000A46002101884FF68F7319401143018044
:102D20007047F0B50C4615461E46002100220023D0
:102D30000189028B038C4FF6F877394021434FF617
:102D4000FC473A4040F201173A434FF6DD773B40EB
:102D50004FF6FF7707EA06172F433B4301810283B3
:102D60000384F0BD0A460021018B4FF68F73194092
:102D70001143018370470A460021018B48F6FF7317
:102D800019404FF6FF7303EA02231943018370478A
:102D90000A460021818B4FF68F73194011438183BE
:102DA00070470A460021818B48F6FF7319404FF6A1
:102DB000FF7303EA022319438183704721B102881C
:102DC00042F08002028004E002884FF67F731A40CE
:102DD0000280704721B1828842F00402828004E0C0
:102DE00082884FF6FB731A408280704721B1828837
:102DF00042F00802828004E082884FF6F7731A409E
:102E00008280704721B1828842F00102828004E012
:102E100082884FF6FE731A40828070470A4600216E
:102E2000018B4FF6F77319401143018370470A462F
:102E30000021018B4FF2FF7319404FF6FF7303EA35
:102E400002231943018370470A460021818B4FF604
:102E5000F77319401143818370470A460021818B23
:102E60004FF2FF7319404FF6FF7303EA0223194331
:102E7000818370470A460021018B4FF6FB7319408E
:102E80001143018370470A460021018B4FF6FF333F
:102E900019404FF6FF7303EA022319430183704779
:102EA0000A460021818B4FF6FB7319401143818341
:102EB00070470A460021818B4FF6FF3319404FF6C9
:102EC000FF7303EA02231943818370470A460021F6
:102ED000018B4FF67F7319401143018370470A46F7
:102EE0000021018BC1F30E014FF6FF7303EA0223A9
:102EF0001943018370470A460021818B4FF67F7387
:102F000019401143818370470A460021818BC1F328
:102F10000E014FF6FF7303EA0223194381837047C2
:102F20000A460021018C4FF6FD73194011430184BC
:102F300070470A460021018C4FF6F7731940114380
:102F4000018470470A460021018C4FF6DF73194057
:102F50004FF6FF7303EA02131943018470470A46D0
:102F60000021018C4FF67F7319404FF6FF7303EA7F
:102F700002131943018470470A460021018C4FF661
:102F8000FF5319404FF6FF7303EA022319430184EC
:102F900070470A460021018C4FF2FF7319404FF62B
:102FA000FF7303EA02231943018470470A46002194
:102FB000018C4DF6FF7319404FF6FF7303EA02339D
:102FC00019430184704730B5002301248C40A3B21B
:102FD000048C9C430484048C02FA01F5ADB22C43AA
:102FE000048430BD30B5002304248C40A3B2048C8B
:102FF0009C430484048C02FA01F5ADB22C43048492
:1030000030BD70B503460020002418461830012555
:103010008D40ACB21D8CA5431D8409B1082909D18E
:1030200000EB6100056825F0700505600568154333
:1030300005600EE00D1FC5F34E052844056825F414
:10304000E045056005684FF6FF7606EA022635433F
:10305000056070BD21B1028842F00202028004E0E6
:1030600002884FF6FD731A400280704721B1028832
:1030700042F00402028004E002884FF6FB731A401B
:103080000280704721B1828842F08002828004E091
:1030900082884FF67F731A408280704702884FF60D
:1030A000F7731A40028002880A43028070478288C0
:1030B0004FF68F731A40828082880A43828070475D
:1030C00002894FF6F8731A40028102890A4302818D
:1030D000704702894FF67F731A40028102890A43C2
:1030E000028170478184704781857047818670476F
:1030F0000187704781877047A0F8401070470288A9
:103100004FF6FF431A40028002880A43028070474C
:103110000146888E70470146088F70470146888FA8
:1031200070470146B1F8400070470146888C7047EF
:103130000146088D704702460020138A0B400BB1F0
:10314000012000E000207047CA430282704730B57A
:103150000246002000230024158A05EA0103958910
:1031600005EA010413B10CB1012000E0002030BDDC
:10317000CA4302827047000010B50446FB488442EF
:1031800009D101218803FEF719FF00214FF4804087
:10319000FEF714FF32E0F648844209D101214804C9
:1031A000FEF719FF00214FF40030FEF714FF25E071
:1031B000F048844209D101218804FEF70CFF002168
:1031C0004FF48020FEF707FF18E0EB48844209D156
:1031D0000121C804FEF7FFFE00214FF40020FEF796
:1031E000FAFE0BE0E548844208D101210805FEF70C
:1031F000F2FE00214FF48010FEF7EDFE10BD2DE928
:10320000F04786B005460E460024A24600BFA14600
:103210000027B08900B100BF2F462C8A4CF6FF7002
:103220000440F08804432C82AC894EF6F31004402D
:10323000B08831890843718908430443AC81AC8A62
:103240004FF6FF400440B0890443AC8201A8FEF76A
:103250002EFEC648874202D1DDF810A001E0DDF85D
:103260000CA0A88900F4004040B10AEBCA0000EBB2
:103270000A1031684900B0FBF1F807E00AEBCA0018
:1032800000EB0A1031688900B0FBF1F86420B8FB4C
:10329000F0F004012009642101FB1089A88900F4E1
:1032A000004040B1322000EBC900B0FBF1F000F06B
:1032B0000700044308E0322000EB09106421B0FB52
:1032C000F1F000F00F0004432C8106B0BDE8F08758
:1032D0004FF41651016000218180C18001810C21D1
:1032E000418100218181704710B502460020108A7B
:1032F0004FF2FF0318400B884C8823438C882343EC
:10330000CC8823431843108210BD002101804180E6
:103310008180C180704721B1828942F4005282814C
:1033200004E082894DF6FF731A4082817047F0B540
:103330000346002400260025002040F66A17B94203
:1033400000D100BF1846C1F3421401F01F06012747
:1033500007FA06F5012C01D10C3004E0022C01D152
:10336000103000E014301AB107682F43076002E004
:103370000768AF430760F0BD1AB1838A0B438382AD
:1033800002E0838A8B4383827047028A4FF6F07390
:103390001A400282028A0A430282704782894FF2EF
:1033A000FF731A40828182890A438281704721B16A
:1033B000828942F00202828104E082894FF6FD7325
:1033C0001A4082817047028A4FF6DF731A400282E8
:1033D000028A0A430282704721B1028A42F4804283
:1033E000028204E0028A4BF6FF731A4002827047A1
:1033F000C1F308028280704701468888C0F3080044
:103400007047818941F0010181817047028BD2B2FE
:103410000283028B42EA012202837047028B02F48C
:103420007F420283028B0A430283704721B1828A62
:1034300042F02002828204E0828A4FF6DF731A4053
:103440008282704721B1828A42F01002828204E0B7
:10345000828A4FF6EF731A408282704721B1828AC6
:1034600042F00802828204E0828A4FF6F7731A4023
:103470008282704721B1828942F40042828103E056
:103480008289C2F30E028281704721B1828A42F49E
:103490000062828204E0828A4FF2FF731A408282C5
:1034A0007047828A4FF6FB731A408282828A0A43EF
:1034B0008282704721B1828A42F00202828204E055
:1034C000828A4FF6FD731A408282704702460020BE
:1034D000B1F5007F00D100BF13880B400BB1012074
:1034E00000E00020704701F40072B2F5007F00D1C7
:1034F00000BFCA430280704770B502460024002313
:103500000025002040F66A16B14200D100BFC1F389
:10351000421501F01F03012606FA03F3012D02D123
:103520009689334006E0022D02D1168A334001E02D
:10353000968A33400C12012606FA04F416883440A9
:1035400013B10CB1012000E0002070BD10B50022C5
:10355000002340F66A14A14200D100BF0A120124E0
:103560009440A3B2DC43048010BD00000038014049
:103570000044004000480040004C00400050004023
:103580000CB50020019000906C48006840F4803039
:103590006A49086000BF6948006800F40030009084
:1035A0000198401C0190009818B90198B0F5A06FDF
:1035B000F1D16248006800F4003010B101200090A1
:1035C00001E0002000900098012843D15C48006889
:1035D00040F010005A4908600846006820F00300D7
:1035E00008600846006840F00200086053484068E0
:1035F000524948600846406848600846406840F4C0
:10360000806048600846406820F47C1048600846A6
:10361000406840F4E81048600846006840F0807058
:10362000086000BF4548006800F000700028F9D02D
:103630004248406820F0030040494860084640681E
:1036400040F00200486000BF3C48406800F00C00B9
:103650000828F9D10CBD10B5FFF792FF10BD10B5C9
:103660003648006840F00100344908600846406868
:1036700034490840314948600846006832490840EA
:103680002E4908600846006820F48020086008463B
:10369000406820F4FE0048604FF41F008860FFF788
:1036A000DAFF4FF000602949086010BD10B5002115
:1036B00000200022214B5B6803F00C0121B104299A
:1036C00006D0082928D107E0214B224C236027E0AF
:1036D0001F4B204C236023E0184B5B6803F47010F1
:1036E000164B5B6803F48032022303EB904022B94F
:1036F000194B4343174C23600DE0104B5B6803F4F8
:10370000003323B1144B4343124C236003E0104BAE
:103710004343104C236003E00D4B0E4C236000BF6D
:1037200000BF064B5B68C3F303130C4CE15C094B11
:103730001B68CB40074C236010BD00000010024006
:10374000002002400000FFF8FFFFF6FE08ED00E059
:1037500000127A004C00002000093D0050000020BB
:103760000948804709480047FEE7FEE7FEE7FEE715
:10377000FEE7FEE7FEE7FEE7FEE7FEE70448054951
:10378000054A064B704700005F360008310100080B
:10379000C01D0020C0230020C01F0020C01F00202B
:1037A0004168491C4160D0E90121914203D10121C6
:1037B000016000214160704700B52648006878B379
:1037C0000020244908602448FFF7EAFF2348FFF758
:1037D000E7FF2348FFF7E4FF2248FFF7E1FF224815
:1037E000FFF7DEFF2148FFF7DBFF2148FFF7D8FF97
:1037F0002048FFF7D5FF2048FFF7D2FF1F48FFF70B
:10380000CFFF1F48FFF7CCFF1E48FFF7C9FF1E4838
:10381000FFF7C6FF1D48FFF7C3FF1D48FFF7C0FFB6
:1038200000BD10B50024046044608160C26065245E
:103830001C7010BD10B50024046044608160C2603B
:1038400064241C7010BD0268012A01D1027B0A7039
:1038500070470000600000204C1900205C19002017
:103860006C1900207C1900208C1900209C19002064
:10387000AC190020BC190020CC190020DC19002054
:10388000EC190020FC1900200C1A00201C1A002042
:103890002C1A00200120FE490870FE490870FE49DC
:1038A0000870FE490870FE490870FE490870FE491C
:1038B0000870FE490870FE490870FE490870FE490C
:1038C0000870FE490870FE490870FE490870FE49FC
:1038D00008700020FD49C870012008704870002061
:1038E0008870704770B506460C4615462078342817
:1038F00032D007DC082877D2DFE800F0E51538572A
:103900007998B9C8382870D006DC352843D03628D5
:1039100060D0372868D17FE0642867D065287AD0E6
:10392000C828F7D1CEE0A87C012814D1E848007857
:10393000012810D10020A8744FF48041E548FEF71B
:10394000F4F80020E4498874234634224FF41671B9
:103950003046FFF76FFFB7E00020DF498874234649
:10396000022211463046FFF765FFADE0DA48807C61
:1039700001280FD18103D748FEF7D9F84FF4006131
:10398000D448FEF7D2F8234635224FF4167130465C
:10399000FFF750FF98E00020D049887423460322A7
:1039A00002213046FFF746FF8EE0CC48807C01289C
:1039B0000FD1C102C748FEF7BAF84FF48061C5487D
:1039C000FEF7B3F8234636224FF416713046FFF760
:1039D00031FF79E00020C249887423460422022185
:1039E0003046FFF727FF6FE06DE036E060E0BC484F
:1039F000807C01280ED18102B648FEF798F820217C
:103A0000B848FEF792F8234637224FF41671304635
:103A1000FFF710FF58E050E00020B34988742346B8
:103A2000052202213046FFF705FF4DE0AE48807CBD
:103A3000012811D12021AB48FEF779F80421A948CB
:103A4000FEF773F80020A9498874234607224FF433
:103A500016713046FFF7EEFE36E00020A349887469
:103A60002346062202213046FFF7E4FE2CE09F4861
:103A7000807C012809D104219A48FEF758F8234692
:103A8000072202213046FFF7D5FE1DE000209049B5
:103A9000087001209649087000209649887496495C
:103AA00088742346012202213046FFF7C3FE0BE053
:103AB00021463046FFF7C7FE06E021463046FFF7B5
:103AC000C2FE01E000E000BF00BF70BD70B5064659
:103AD0000C4615462078092874D007DC73D2DFE83D
:103AE00000F072162B35495367768D0064286BD031
:103AF00006DC0A2869D00B2868D0142863D1B5E009
:103B0000652879D0662878D0C828F7D11FE1A87C2D
:103B1000012810D17648007801280CD10020A87423
:103B200010217048FEF701F8234604224FF4167165
:103B30003046FFF77FFE0CE1002070498874234671
:103B4000032202213046FFF775FE02E16B48807CBC
:103B500001280ED108216348FDF7E9FF10216148D3
:103B6000FDF7E3FF234604224FF416713046FFF7BA
:103B700061FEEEE00020614988742346052202219F
:103B80003046FFF757FEE4E05C48807C01280ED108
:103B900041035048FDF7C9FF10215248FDF7C7FF08
:103BA000234606224FF416713046FFF743FED0E05D
:103BB0000020534988742346072202213046FFF72C
:103BC00039FEC6E024E0C3E0A0E036E03FE04C4828
:103BD000807C01280FD141033E48FDF7A8FF4FF438
:103BE00080513C48FDF7A1FF234608224FF416718F
:103BF0003046FFF71FFEACE08DE091E00020414928
:103C000088742346092202213046FFF713FEA0E004
:103C10003C48807C01280FD101032E48FDF787FF27
:103C20004FF400712B48FDF780FF23460A224FF422
:103C300016713046FFF7FEFD8BE000203249887494
:103C400023460B2202213046FFF7F4FD81E02E4887
:103C5000807C012809D141021E48FDF768FF2346F8
:103C6000142202213046FFF7E5FD72E001201849D9
:103C7000087000201E4908701E4988741E49887407
:103C80002346012202213046FFF7D4FD61E0000007
:103C9000640000206500002066000020670000200E
:103CA00068000020690000206A0000206B000020EE
:103CB0006C0000206D0000206E0000206F000020CE
:103CC00070000020710000207200002079000020A8
:103CD0007E000020002001401C1C00205C1C0020F5
:103CE0009C1C002000140140DC1C00201C1D002036
:103CF0007D0000203C1A00205C1A0020FC1C0020E3
:103D00003C1C00207C1C0020BC1C002021463046AE
:103D1000FFF799FD1DE021463046FFF794FD18E0BE
:103D20004FF40071F948FDF702FF4FF48071F84835
:103D3000FDF7FBFE4FF48071F448FDF7F8FE2346D3
:103D400002224FF4FA713046FFF774FD01E000E003
:103D500000BF00BF70BD70B506460D4614462878FA
:103D6000642827D006DC01280BD002281AD00628A8
:103D700044D11EE0652822D066282AD0C8283DD12B
:103D80003BE0A07C012805D10020A0740120E1497E
:103D9000087006E0207D012803D100202075DD4950
:103DA00008702CE02B460B2205213046FFF742FD20
:103DB00025E024E029463046FFF745FD1FE029466F
:103DC0003046FFF740FD207F012801D16620287092
:103DD00015E01021D048FDF7AAFE2021CE48FDF7BE
:103DE000A4FE0821CC48FDF7A2FE2B4602224FF488
:103DF000FA713046FFF71EFD01E000E000BF00BF92
:103E000070BD70B506460D46144628780B282FD095
:103E100007DC072873D2DFE800F0720D1F3742720B
:103E20004B00642845D0652848D0662850D0C82863
:103E300065D163E0A07C01280DD10020A0744FF46F
:103E40008071B348FDF771FE2B4602224FF42F71AB
:103E50003046FFF7EFFC53E04FF48071AC48FDF7BC
:103E600066FE2B46042205213046FFF7E3FC47E0BF
:103E70008021A648FDF759FE2B4603224FF42F71EF
:103E80003046FFF7D7FC3BE08021A048FDF74FFE0E
:103E90002B46042202213046FFF7CCFC30E02B46B3
:103EA000012232213046FFF7C5FC0020A07427E034
:103EB00026E029463046FFF7C6FC21E02946304679
:103EC000FFF7C1FC207F012801D16620287017E090
:103ED00001219148FDF72BFE02218F48FDF725FEB9
:103EE0004FF480518948FDF722FE2B4602224FF401
:103EF000FA713046FFF79EFC02E000E000E000BFF0
:103F000000BF70BD70B506460D46144628780B28D4
:103F100033D007DC07286ED2DFE800F08B1123389E
:103F2000525E670066286DD004DC64285ED0652888
:103F30007FD162E067283BD0C8287AD178E0A07CA6
:103F400001280DD10020A0744FF480417348FDF783
:103F5000ECFD2B46022240F252313046FFF76AFC5C
:103F600068E04FF480416D48FDF7E1FD2B460B22E0
:103F700005213046FFF75EFC5CE00020A0742B4674
:103F8000032202213046FFF755FC53E0A07C0128B4
:103F90000DD10020A07420774FF400515F48FDF749
:103FA000C4FD2B46672202213046FFF743FC41E067
:103FB0002B46042240F252313046FFF732FC39E002
:103FC0004FF400515548FDF7B2FD2B460522322132
:103FD0003046FFF72FFC2DE00020A0742B46012275
:103FE00032213046FFF726FC24E023E02946304604
:103FF000FFF729FC1EE01CE004E029463046FFF7ED
:1040000022FC17E04FF400714448FDF790FD4FF497
:1040100080614248FDF789FD80213F48FDF787FD1B
:104020002B4602224FF4FA713046FFF703FC01E001
:1040300000E000BF00BF70BD70B506460D461446D7
:1040400028780B2833D007DC072869D2DFE800F096
:104050009411233852697200662877D004DC6428F2
:1040600069D065285CD16CE067283BD0C828F9D1BD
:1040700081E0A07C01280DD10020A0744FF4806164
:104080002648FDF752FD2B46022240F252313046BF
:10409000FFF7D0FB71E04FF480612048FDF747FD4A
:1040A0002B460B2205213046FFF7C4FB65E00020BC
:1040B000A0742B46032202213046FFF7BBFB5CE0D5
:1040C000A07C01280DD10020A07420774FF400714E
:1040D0001248FDF72AFD2B46672202213046FFF7E2
:1040E000A9FB4AE02B46042240F252313046FFF74A
:1040F00098FB42E04FF400710848FDF718FD2B468D
:10410000052232213046FFF795FB36E000100140D2
:104110000008014078000020001401400020014008
:104120002AE00020A0742B46012232213046FFF7FE
:1041300081FB22E021E029463046FFF784FB1CE0AA
:1041400004E029463046FFF77EFB16E04FF480710D
:10415000F748FDF7ECFC4021F648FDF7E6FC80212E
:10416000F348FDF7E4FC2B4602224FF4FA71304687
:10417000FFF760FB01E000E000BF00BF70BD70B55D
:1041800006460D46144628780B2833D007DC07284E
:1041900073D2DFE800F08A112338525E6700662888
:1041A0006DD004DC64285ED065287ED160E067288D
:1041B0003BD0C82879D177E0A07C01280DD1002020
:1041C000A0744FF40061DA48FDF7AFFC2B460222E1
:1041D00040F252313046FFF72DFB67E04FF40061AB
:1041E000D348FDF7A4FC2B460B2205213046FFF7F0
:1041F00021FB5BE00020A0742B4603220221304605
:10420000FFF718FB52E0A07C01280DD10020A0741C
:1042100020774FF48051C648FDF787FC2B46672274
:1042200002213046FFF706FB40E02B46042240F215
:1042300052313046FFF7F5FA38E04FF48051BC4870
:10424000FDF775FC2B46052232213046FFF7F2FAC6
:104250002CE00020A0742B46012232213046FFF7CB
:10426000E9FA23E022E029463046FFF7ECFA1DE0A8
:1042700029463046FFF7E7FA18E016E0FFE7042189
:10428000AB48FDF754FC0821A948FDF74EFC4FF45C
:104290000041A948FDF74BFC2B4602224FF4FA716E
:1042A0003046FFF7C7FA01E000E000BF00BF70BD75
:1042B00070B506460D46144628780B2831D007DC29
:1042C00007286FD2DFE800F0881122364F5A6300CA
:1042D000662869D004DC64285AD065287CD15CE06B
:1042E000672838D0C82877D175E0A07C01280CD188
:1042F0000020A07420219048FDF717FC2B460222D5
:1043000040F252313046FFF795FA66E020218A48A4
:10431000FDF70DFC2B460B2205213046FFF78AFAEC
:104320005BE00020A0742B46032202213046FFF7F9
:1043300081FA52E0A07C01280CD10020A0742077E3
:1043400010217D48FDF7F1FB2B4667220221304604
:10435000FFF770FA41E02B46042240F2523130461A
:10436000FFF75FFA39E010217348FDF7E0FB2B46B9
:1043700005220A213046FFF75DFA2EE00020A074E6
:104380002B4601220A213046FFF754FA25E024E0AB
:1043900029463046FFF757FA1FE029463046FFF717
:1043A00052FA1AE018E0FFE74FF480516248FDF737
:1043B000BEFB4FF400516048FDF7B7FB4FF40061BE
:1043C0005D48FDF7B4FB2B4602224FF4FA713046EC
:1043D000FFF730FA01E000E000BF00BF70BD70B52C
:1043E00006460D46144628780B2831D007DC0728EE
:1043F0006FD2DFE800F0881122364F5A630066283A
:1044000069D004DC64285AD065287CD15CE0672838
:1044100038D0C82877D175E0A07C01280CD10020C5
:10442000A07404214448FDF780FB2B46022240F291
:1044300052313046FFF7FEF966E004213E48FDF7B1
:1044400076FB2B460B2205213046FFF7F3F95BE0A4
:104450000020A0742B46032202213046FFF7EAF920
:1044600052E0A07C01280CD10020A0742077082104
:104470003148FDF75AFB2B46672202213046FFF7F1
:10448000D9F941E02B46042240F252313046FFF781
:10449000C8F939E008212848FDF749FB2B460522D9
:1044A00032213046FFF7C6F92EE00020A0742B46DB
:1044B000012232213046FFF7BDF925E024E02946EC
:1044C0003046FFF7C0F91FE029463046FFF7BBF939
:1044D0001AE018E0FFE74FF480511848FDF727FB7A
:1044E0004FF400511548FDF720FB4FF400611348CD
:1044F000FDF71DFB2B4602224FF4FA713046FFF701
:1045000099F901E000E000BF00BF70BD70B506463C
:104510000D46144628780B2839D011DC012818D014
:10452000022828D003283FD004287AD148E0000090
:10453000002001400010014000140140000C014027
:10454000642846D0652849D0662851D0C82868D14B
:1045500066E0A07C01280DD10020A0744FF400710A
:104560005948FDF7E2FA2B4602224FF42F713046EC
:10457000FFF760F956E04FF400715348FDF7D7FAA2
:104580002B46042205213046FFF754F94AE04FF448
:1045900000714D48FDF7C9FA2B4603224FF42F71E5
:1045A0003046FFF747F93DE04FF400714648FDF70C
:1045B000BEFA2B46042202213046FFF73BF931E0D8
:1045C0002B46012232213046FFF734F90020A07437
:1045D00028E029463046FFF736F923E029463046E1
:1045E000FFF731F9207F012801D16620287019E0FA
:1045F0004FF480413548FDF79AFA4FF400413348B3
:10460000FDF793FA4FF400513048FDF790FA2B462E
:1046100002224FF4FA713046FFF70CF902E000E095
:1046200000E000BF00BF70BD70B505460C462078A5
:10463000032826D004DC012807D002282ED112E05E
:10464000642825D0C82829D127E04FF4806120486C
:10465000FDF76DFAFCF7EFFA23460222C82128463F
:10466000FFF7E8F81BE04FF480611948FDF75DFAA9
:10467000FCF7E1FA23460122C8212846FFF7DAF8C1
:104680000DE02346012203212846FFF7D3F806E078
:1046900021462846FFF7D7F801E000E000BF00BF41
:1046A00070BD012080F3138800BF00BF0948006877
:1046B00000F4E06008490843001D06490860BFF3A4
:1046C0004F8F00BF00BFFEE70010014000180140FF
:1046D000000C01400CED00E00000FA05417C0129CE
:1046E00002D064290DD10BE00168032907D901210B
:1046F000417400210174012181740021C17401E021
:1047000000E000BF00BF7047417C03292ED004DCCD
:10471000012907D002292ED11AE0042929D06429C1
:1047200029D127E00168032907D90221417400211A
:104730000174012181740021C1744168032901D9E8
:10474000012101758168022901D90121017713E056
:104750004168032904D9032141740121C174017501
:104760008168022901D90121017705E00121417405
:1047700002E001E000E000BF00BF704710B5044652
:10478000607C012806D0022817D003281DD0642899
:1047900024D122E020680A2805D90120A074002035
:1047A00020750220607460680A2805D901202075F0
:1047B0000020A0740320607411E060680A2803D907
:1047C00001206074FFF76DFF09E020680A2803D913
:1047D00001206074FFF765FF01E000E000BF00BF4B
:1047E00010BD10B5F74800680A287AD30020F549B3
:1047F00008604FF48071F448FDF77DF9C0B94FF4BB
:104800000071F148FDF777F990B90221EF48FDF703
:1048100072F968B9EE480068FA2803D9C820EC4953
:10482000086008E0EA480068401CE949086002E0C6
:104830000020E74908604FF48071E348FDF75BF919
:10484000012813D14102E048FDF755F901280DD1A7
:10485000DF484068FA2803D9C820DD49486008E0ED
:10486000DB484068401CDA49486002E00020D84933
:1048700048604FF48071D448FDF73DF9C8B94FF452
:104880000071D148FDF737F998B90221CF48FDF7FB
:1048900032F901280DD1CF480068FA2803D9C82081
:1048A000CC49086008E0CB480068401CC949086052
:1048B00002E00020C74908604FF48071C248FDF74C
:1048C0001AF9012814D14102BF48FDF714F9012853
:1048D0000ED1C0484068FA2804D9C820BD494860B4
:1048E00009E03AE3BB484068401CBA49486002E02E
:1048F0000020B84948600121B448FDF7FCF868B9C8
:10490000B5480068FA2803D9C820B349086008E010
:10491000B1480068401CB049086002E00020AE4980
:1049200008600121A948FDF7E6F8012805D1AA4849
:104930004068401CA849486002E00020A649486041
:104940004021A248FDF7D7F898B94FF40041A34899
:10495000FDF7D1F868B9A2480068FA2803D9C82041
:104960009F49086008E09E480068401C9C49086018
:1049700002E000209A49086040219448FDF7BBF806
:1049800001280DD196484068FA2803D9C8209449D7
:10499000486008E092484068401C9149486002E045
:1049A00000208F4948604FF400418C48FDF7A3F880
:1049B00001280DD18A488068FA2803D9C82088497F
:1049C000886008E086488068401C8549886002E06D
:1049D00000208349886040217C48FDF78CF868B945
:1049E00080480068FA2803D9C8207E49086008E09A
:1049F0007C480068401C7B49086002E0002079493F
:104A0000086040217148FDF776F801280DD17548FE
:104A10004068FA2803D9C8207249486008E0714804
:104A20004068401C6F49486002E000206D494860C2
:104A30004FF400516948FDF75EF868B96A480068AC
:104A4000FA2803D9C8206849086008E06648006869
:104A5000401C6549086002E00020634908604FF48B
:104A600000515E48FDF747F801280DD15E484068C7
:104A7000FA2803D9C8205C49486008E05A484068D1
:104A8000401C5949486002E00020574948604FF4F3
:104A900080415248FDF72FF868B954480068FA2859
:104AA00003D9C8205149086008E050480068401CFC
:104AB0004E49086002E000204C4908604FF48041F4
:104AC0004648FDF718F801280DD148484068FA28F3
:104AD00003D9C8204549486008E044484068401C64
:104AE0004249486002E00020404948604FF40041DC
:104AF0003A48FDF700F868B93D480068FA2803D93C
:104B0000C8203B49086008E039480068401C384923
:104B1000086002E00020364908604FF400412F4849
:104B2000FCF7E9FF01280DD131484068FA2803D984
:104B3000C8202F49486008E02D484068401C2C4997
:104B4000486002E000202A4948604FF480712948FB
:104B5000FCF7D1FF68B928480068FA2803D9C820B3
:104B60002549086008E024480068401C2249086084
:104B700002E00020204908604FF480711D48FCF7D6
:104B8000BAFF01280DD11C484068FA2803D9C82073
:104B90001949486008E018484068401C16494860B8
:104BA00002E000201449486080210748FCF7A3FF79
:104BB00038B912480068FA2822D9C8200F4908607D
:104BC00027E023E080000020000C01400018014095
:104BD0003C1A00205C1A00207C1A002000100140C2
:104BE0009C1A0020BC1A0020DC1A0020FC1A0020AD
:104BF0001C1B0020001C01403C1B00201C1C002032
:104C0000FE480068401CFD49086002E00020FB49A6
:104C100008608021FA48FCF76EFF01280DD1F748A3
:104C20004068FA2803D9C820F449486008E0F348EE
:104C30004068401CF149486002E00020EF494860AC
:104C40001021EF48FCF757FF68B9EE480068FA28D2
:104C500003D9C820EB49086008E0EA480068401C16
:104C6000E849086002E00020E64908601021E448B5
:104C7000FCF741FF01280DD1E2484068FA2803D92A
:104C8000C820E049486008E0DE484068401CDD4933
:104C9000486002E00020DB4948600821DA48FCF760
:104CA0002AFF68B9D9480068FA2803D9C820D7492B
:104CB000086008E0D5480068401CD449086002E05C
:104CC0000020D24908600821CF48FCF714FF0128D2
:104CD0000DD1CE484068FA2803D9C820CB49486096
:104CE00008E0CA484068401CC849486002E000200B
:104CF000C64948600421C448FCF7FDFE68B9C448B1
:104D00000068FA2803D9C820C149086008E0C048F3
:104D10000068401CBE49086002E00020BC490860F1
:104D20000421B948FCF7E7FE01280DD1B8484068D6
:104D3000FA2803D9C820B649486008E0B44840685A
:104D4000401CB349486002E00020B1494860082196
:104D5000AB48FCF7D0FE68B9AE480068FA2803D922
:104D6000C820AC49086008E0AA480068401CA9496E
:104D7000086002E00020A74908600821A048FCF76D
:104D8000BAFE01280DD1A3484068FA2803D9C820EB
:104D9000A049486008E09F484068401C9D49486021
:104DA00002E000209B4948604FF400419A48FCF71C
:104DB000A2FE68B999480068FA2803D9C820974923
:104DC000086008E095480068401C9449086002E0CB
:104DD0000020924908604FF400418F48FCF78BFE99
:104DE00001280DD18D484068FA2803D9C8208B4985
:104DF000486008E089484068401C8849486002E0F3
:104E000000208649486002218548FCF774FE68B995
:104E100084480068FA2803D9C8208249086008E05D
:104E200080480068401C7F49086002E000207D49FE
:104E3000086002217A48FCF75EFE01280DD179480E
:104E40004068FA2803D9C8207649486008E07548C8
:104E50004068401C7349486002E000207149486086
:104E600001216F48FCF747FE68B96F480068FA28CF
:104E700003D9C8206C49086008E06B480068401CF2
:104E80006949086002E00020674908600121644820
:104E9000FCF731FE01280DD163484068FA2803D998
:104EA000C8206149486008E05F484068401C5E498E
:104EB000486002E000205C49486008215848FCF73F
:104EC0001AFE68B959480068FA2803D9C82057491A
:104ED000086008E055480068401C5449086002E03A
:104EE00000205249086008214D48FCF704FE0128C3
:104EF0000DD14E484068FA2803D9C8204B49486074
:104F000008E04A484068401C4849486002E00020E8
:104F10004649486004214248FCF7EDFD68B9444821
:104F20000068FA2803D9C8204149086008E04048D1
:104F30000068401C3E49086002E000203C490860CF
:104F400004213748FCF7D7FD01280DD138484068C7
:104F5000FA2803D9C8203649486008E03448406838
:104F6000401C3349486002E0002031494860314824
:104F7000FFF7CAFB3048FFF7C7FB3048FFF7FEFBDF
:104F80002F48FFF7C1FB2F48FFF7BEFB2E48FFF766
:104F9000BBFB2E48FFF7B8FB2D48FFF7B5FB2D48AC
:104FA000FFF7B2FB2C48FFF7AFFB2C48FFF7ACFB39
:104FB0002B48FFF7A9FB2B48FFF7A6FB2A48FFF772
:104FC000A3FB0E48FFF78AFB0E48FFF787FB0F484D
:104FD000FFF784FB0E48FFF781FB0E48FFF77EFBCF
:104FE0000E48FFF77BFB0F48FFF778FB0E48FFF7F3
:104FF00075FB0E48FFF772FB0D4837E01C1C0020C4
:10500000000C01403C1C0020001801405C1C0020EA
:105010007C1C00209C1C002000200140BC1C0020A7
:10502000001C0140DC1C0020FC1C00201C1D00207A
:105030003C1D00203C1A00205C1A00207C1A002035
:105040009C1A0020BC1A0020DC1A0020FC1A002048
:105050001C1B00203C1B00205C1B00207C1B002034
:105060009C1B0020BC1B0020DC1B0020FFF736FB34
:1050700010BD0021816141758174C17401750121E8
:1050800041740021017401604160C160704700B546
:105090003D48FFF7EEFF3D48FFF7EBFF3C48FFF7C9
:1050A000E8FF3C48FFF7E5FF3B48FFF7E2FF3B48DE
:1050B000FFF7DFFF3A48FFF7DCFF3A48FFF7D9FF79
:1050C0003948FFF7D6FF3948FFF7D3FF3848FFF7D5
:1050D000D0FF3848FFF7CDFF3748FFF7CAFF374802
:1050E000FFF7C7FF3648FFF7C4FF3648FFF7C1FF99
:1050F0003548FFF7BEFF3548FFF7BBFF3448FFF7E1
:10510000B8FF3448FFF7B5FF3348FFF7B2FF334825
:10511000FFF7AFFF3248FFF7ACFF3248FFF7A9FFB8
:105120003148FFF7A6FF00BD417C03291DD004DCF8
:10513000012907D0022923D10CE0042919D06429C0
:105140001ED11CE00168052903D902214174002108
:10515000017416E00168B1F5967F00D900BF41687F
:10516000042901D9032141740BE0012181744174A8
:1051700007E04168042901D90121417401E000E000
:1051800000BF00BF704700003C1A00205C1A0020DE
:105190007C1A00209C1A0020BC1A0020DC1A002077
:1051A000FC1A00201C1B00203C1B00205C1B002064
:1051B0007C1B00209C1B0020BC1B0020DC1B002053
:1051C000FC1B00201C1C00203C1C00207C1C002020
:1051D0005C1C0020BC1C00209C1C00203C1D0020EE
:1051E0001C1D0020FC1C0020DC1C0020704700005F
:1051F0000FB4044910B503AA029800F04FF810BC90
:105200005DF814FB2C000020032A40F2308010F0DF
:10521000030C00F0158011F8013BBCF1020F624451
:1052200098BF11F801CB00F8013B38BF11F8013BE2
:10523000A2F1040298BF00F801CB38BF00F8013B8F
:1052400011F0030300F03C80083AC0F0088051F8E8
:10525000043B083A51F804CBA0E80810F5E7121D0A
:105260005CBF51F8043B40F8043BAFF30080D20729
:1052700024BF11F8013B11F801CB48BF11F8012BF5
:1052800024BF00F8013B00F801CB48BF00F8012B18
:10529000704770477047704770470000074B70B504
:1052A0000D467B4400F043F80446284600F052F8CF
:1052B00010B14FF0FF3070BD204670BD8BBEFFFFB8
:1052C00010B5203AC0F00B80B1E81850203AA0E8A1
:1052D0001850B1E81850A0E81850BFF4F5AF5FEAD5
:1052E000027C24BFB1E81850A0E8185044BF18C988
:1052F00018C0BDE810405FEA827C24BF51F8043B2F
:1053000040F8043B08BF7047D20728BF31F8023B82
:1053100048BF11F8012B28BF20F8023B48BF00F816
:10532000012B704701694A1C02610878704700B57B
:105330008FB0CDE901310021059105497944CDE9CE
:1053400003101146684600F02EF80FB000BD0000B3
:10535000E5FFFFFF007B00F080007047754600F01E
:105360003FF8AE4605006946534620F007008546E3
:1053700018B020B5FEF702FABDE820404FF0000655
:105380004FF000074FF000084FF0000B21F007012D
:10539000AC46ACE8C009ACE8C009ACE8C009ACE870
:1053A000C0098D4670472DE9F04106460024D6E934
:1053B0000170F5688046304603E04146B847641CFA
:1053C0003046A8470028F8D12046BDE8F08110B546
:1053D0000446AFF300802046BDE81040FAF7EFBE68
:1053E000004870475C1D00200854000800000020A1
:1053F000840000006C0100088C5400088400002028
:105400003C230000880100080000000000000000AC
:10541000000000000000000000000000000000008C
:105420000000000000000000030000000000000079
:10543000000000000000000000000000000000006C
:105440000000010203040102030406070809020424
:105450000608000000A24A0400000000000000004E
:105460000102030406070809000000000000000014
:10547000000000000000000000000000000000002C
:0C5480000000000000010000000000001F
:0400000508000131BD
:00000001FF
